{
  "_format": "hh-sol-artifact-1",
  "contractName": "Assembly",
  "sourceName": "contracts/Assembly.sol",
  "abi": [
    {
      "anonymous": false,
      "inputs": [
        {
          "indexed": false,
          "internalType": "address",
          "name": "previousAdmin",
          "type": "address"
        },
        {
          "indexed": false,
          "internalType": "address",
          "name": "newAdmin",
          "type": "address"
        }
      ],
      "name": "AdminChanged",
      "type": "event"
    },
    {
      "anonymous": false,
      "inputs": [
        {
          "indexed": true,
          "internalType": "address",
          "name": "delegate",
          "type": "address"
        },
        {
          "indexed": true,
          "internalType": "address",
          "name": "citizen",
          "type": "address"
        }
      ],
      "name": "AppointDelegate",
      "type": "event"
    },
    {
      "anonymous": false,
      "inputs": [
        {
          "indexed": true,
          "internalType": "address",
          "name": "owner",
          "type": "address"
        },
        {
          "indexed": true,
          "internalType": "address",
          "name": "spender",
          "type": "address"
        },
        {
          "indexed": false,
          "internalType": "uint256",
          "name": "value",
          "type": "uint256"
        }
      ],
      "name": "Approval",
      "type": "event"
    },
    {
      "anonymous": false,
      "inputs": [
        {
          "indexed": true,
          "internalType": "address",
          "name": "beacon",
          "type": "address"
        }
      ],
      "name": "BeaconUpgraded",
      "type": "event"
    },
    {
      "anonymous": false,
      "inputs": [
        {
          "indexed": true,
          "internalType": "address",
          "name": "citizen",
          "type": "address"
        },
        {
          "indexed": false,
          "internalType": "uint256",
          "name": "numCitizens",
          "type": "uint256"
        }
      ],
      "name": "CitizenApplication",
      "type": "event"
    },
    {
      "anonymous": false,
      "inputs": [
        {
          "indexed": true,
          "internalType": "uint256",
          "name": "tallyId",
          "type": "uint256"
        },
        {
          "indexed": false,
          "internalType": "bool",
          "name": "yay",
          "type": "bool"
        },
        {
          "indexed": true,
          "internalType": "address",
          "name": "citizen",
          "type": "address"
        }
      ],
      "name": "CitizenVote",
      "type": "event"
    },
    {
      "anonymous": false,
      "inputs": [
        {
          "indexed": true,
          "internalType": "address",
          "name": "delegate",
          "type": "address"
        },
        {
          "indexed": false,
          "internalType": "uint256",
          "name": "numDelegates",
          "type": "uint256"
        }
      ],
      "name": "DelegateApplication",
      "type": "event"
    },
    {
      "anonymous": false,
      "inputs": [
        {
          "indexed": true,
          "internalType": "uint256",
          "name": "seatNumber",
          "type": "uint256"
        },
        {
          "indexed": true,
          "internalType": "address",
          "name": "delegate",
          "type": "address"
        }
      ],
      "name": "DelegateSeatUpdate",
      "type": "event"
    },
    {
      "anonymous": false,
      "inputs": [
        {
          "indexed": true,
          "internalType": "uint256",
          "name": "tallyId",
          "type": "uint256"
        },
        {
          "indexed": false,
          "internalType": "bool",
          "name": "yay",
          "type": "bool"
        },
        {
          "indexed": true,
          "internalType": "address",
          "name": "delegate",
          "type": "address"
        }
      ],
      "name": "DelegateVote",
      "type": "event"
    },
    {
      "anonymous": false,
      "inputs": [
        {
          "indexed": false,
          "internalType": "uint256",
          "name": "totalReward",
          "type": "uint256"
        }
      ],
      "name": "DelegationReward",
      "type": "event"
    },
    {
      "anonymous": false,
      "inputs": [
        {
          "indexed": true,
          "internalType": "address",
          "name": "account",
          "type": "address"
        }
      ],
      "name": "Distrust",
      "type": "event"
    },
    {
      "anonymous": false,
      "inputs": [
        {
          "indexed": true,
          "internalType": "uint256",
          "name": "tallyId",
          "type": "uint256"
        }
      ],
      "name": "Enacted",
      "type": "event"
    },
    {
      "anonymous": false,
      "inputs": [
        {
          "indexed": false,
          "internalType": "address",
          "name": "executor",
          "type": "address"
        },
        {
          "indexed": false,
          "internalType": "uint256",
          "name": "reward",
          "type": "uint256"
        }
      ],
      "name": "ExecutionReward",
      "type": "event"
    },
    {
      "anonymous": false,
      "inputs": [
        {
          "indexed": true,
          "internalType": "address",
          "name": "member",
          "type": "address"
        }
      ],
      "name": "Expelled",
      "type": "event"
    },
    {
      "anonymous": false,
      "inputs": [
        {
          "indexed": true,
          "internalType": "uint256",
          "name": "tallyId",
          "type": "uint256"
        }
      ],
      "name": "NewTally",
      "type": "event"
    },
    {
      "anonymous": false,
      "inputs": [
        {
          "indexed": false,
          "internalType": "uint256",
          "name": "citizenCountQuorum",
          "type": "uint256"
        }
      ],
      "name": "Quorum",
      "type": "event"
    },
    {
      "anonymous": false,
      "inputs": [
        {
          "indexed": false,
          "internalType": "address",
          "name": "rewarded",
          "type": "address"
        },
        {
          "indexed": false,
          "internalType": "uint256",
          "name": "reward",
          "type": "uint256"
        }
      ],
      "name": "ReferralReward",
      "type": "event"
    },
    {
      "anonymous": false,
      "inputs": [
        {
          "indexed": false,
          "internalType": "uint256",
          "name": "seatCount",
          "type": "uint256"
        }
      ],
      "name": "SeatCount",
      "type": "event"
    },
    {
      "anonymous": false,
      "inputs": [
        {
          "indexed": true,
          "internalType": "uint256",
          "name": "tallyId",
          "type": "uint256"
        }
      ],
      "name": "Tallied",
      "type": "event"
    },
    {
      "anonymous": false,
      "inputs": [
        {
          "indexed": false,
          "internalType": "uint256",
          "name": "tallyDuration",
          "type": "uint256"
        }
      ],
      "name": "TallyDuration",
      "type": "event"
    },
    {
      "anonymous": false,
      "inputs": [
        {
          "indexed": true,
          "internalType": "address",
          "name": "from",
          "type": "address"
        },
        {
          "indexed": true,
          "internalType": "address",
          "name": "to",
          "type": "address"
        },
        {
          "indexed": false,
          "internalType": "uint256",
          "name": "value",
          "type": "uint256"
        }
      ],
      "name": "Transfer",
      "type": "event"
    },
    {
      "anonymous": false,
      "inputs": [
        {
          "indexed": true,
          "internalType": "address",
          "name": "implementation",
          "type": "address"
        }
      ],
      "name": "Upgraded",
      "type": "event"
    },
    {
      "anonymous": false,
      "inputs": [
        {
          "indexed": false,
          "internalType": "uint256",
          "name": "votingPercentThreshold",
          "type": "uint256"
        }
      ],
      "name": "VotingPercentThreshold",
      "type": "event"
    },
    {
      "inputs": [],
      "name": "DEFAULT_THRESHOLD",
      "outputs": [
        {
          "internalType": "uint256",
          "name": "",
          "type": "uint256"
        }
      ],
      "stateMutability": "view",
      "type": "function"
    },
    {
      "inputs": [
        {
          "internalType": "address",
          "name": "owner",
          "type": "address"
        },
        {
          "internalType": "address",
          "name": "spender",
          "type": "address"
        }
      ],
      "name": "allowance",
      "outputs": [
        {
          "internalType": "uint256",
          "name": "",
          "type": "uint256"
        }
      ],
      "stateMutability": "view",
      "type": "function"
    },
    {
      "inputs": [],
      "name": "applyForCitizenship",
      "outputs": [],
      "stateMutability": "nonpayable",
      "type": "function"
    },
    {
      "inputs": [],
      "name": "applyForDelegation",
      "outputs": [],
      "stateMutability": "nonpayable",
      "type": "function"
    },
    {
      "inputs": [
        {
          "internalType": "address",
          "name": "delegate",
          "type": "address"
        }
      ],
      "name": "appointDelegate",
      "outputs": [],
      "stateMutability": "nonpayable",
      "type": "function"
    },
    {
      "inputs": [
        {
          "internalType": "address",
          "name": "spender",
          "type": "address"
        },
        {
          "internalType": "uint256",
          "name": "amount",
          "type": "uint256"
        }
      ],
      "name": "approve",
      "outputs": [
        {
          "internalType": "bool",
          "name": "",
          "type": "bool"
        }
      ],
      "stateMutability": "nonpayable",
      "type": "function"
    },
    {
      "inputs": [
        {
          "internalType": "address",
          "name": "delegate",
          "type": "address"
        }
      ],
      "name": "balanceOf",
      "outputs": [
        {
          "internalType": "uint256",
          "name": "",
          "type": "uint256"
        }
      ],
      "stateMutability": "view",
      "type": "function"
    },
    {
      "inputs": [
        {
          "internalType": "uint256",
          "name": "tallyId",
          "type": "uint256"
        },
        {
          "internalType": "bool",
          "name": "yay",
          "type": "bool"
        }
      ],
      "name": "castCitizenVote",
      "outputs": [],
      "stateMutability": "nonpayable",
      "type": "function"
    },
    {
      "inputs": [
        {
          "internalType": "uint256",
          "name": "tallyId",
          "type": "uint256"
        },
        {
          "internalType": "bool",
          "name": "yay",
          "type": "bool"
        }
      ],
      "name": "castDelegateVote",
      "outputs": [],
      "stateMutability": "nonpayable",
      "type": "function"
    },
    {
      "inputs": [
        {
          "internalType": "address",
          "name": "referrer",
          "type": "address"
        }
      ],
      "name": "claimReferralReward",
      "outputs": [],
      "stateMutability": "nonpayable",
      "type": "function"
    },
    {
      "inputs": [],
      "name": "claimRewards",
      "outputs": [],
      "stateMutability": "nonpayable",
      "type": "function"
    },
    {
      "inputs": [
        {
          "internalType": "uint256",
          "name": "seatNumber",
          "type": "uint256"
        }
      ],
      "name": "claimSeat",
      "outputs": [
        {
          "internalType": "uint256",
          "name": "",
          "type": "uint256"
        }
      ],
      "stateMutability": "nonpayable",
      "type": "function"
    },
    {
      "inputs": [
        {
          "internalType": "uint256",
          "name": "proposalId",
          "type": "uint256"
        }
      ],
      "name": "createTally",
      "outputs": [
        {
          "internalType": "uint256",
          "name": "",
          "type": "uint256"
        }
      ],
      "stateMutability": "nonpayable",
      "type": "function"
    },
    {
      "inputs": [],
      "name": "distributeDelegationReward",
      "outputs": [],
      "stateMutability": "nonpayable",
      "type": "function"
    },
    {
      "inputs": [
        {
          "internalType": "address",
          "name": "account",
          "type": "address"
        }
      ],
      "name": "distrust",
      "outputs": [],
      "stateMutability": "nonpayable",
      "type": "function"
    },
    {
      "inputs": [
        {
          "internalType": "uint256",
          "name": "tallyId",
          "type": "uint256"
        }
      ],
      "name": "enact",
      "outputs": [
        {
          "internalType": "bool",
          "name": "",
          "type": "bool"
        }
      ],
      "stateMutability": "nonpayable",
      "type": "function"
    },
    {
      "inputs": [
        {
          "internalType": "uint256",
          "name": "tallyId",
          "type": "uint256"
        }
      ],
      "name": "execute",
      "outputs": [
        {
          "internalType": "bool",
          "name": "",
          "type": "bool"
        }
      ],
      "stateMutability": "nonpayable",
      "type": "function"
    },
    {
      "inputs": [
        {
          "internalType": "address",
          "name": "account",
          "type": "address"
        }
      ],
      "name": "expel",
      "outputs": [],
      "stateMutability": "nonpayable",
      "type": "function"
    },
    {
      "inputs": [],
      "name": "getAppointedDelegate",
      "outputs": [
        {
          "internalType": "address",
          "name": "",
          "type": "address"
        }
      ],
      "stateMutability": "view",
      "type": "function"
    },
    {
      "inputs": [
        {
          "internalType": "address",
          "name": "_delegate",
          "type": "address"
        }
      ],
      "name": "getAppointmentCount",
      "outputs": [
        {
          "internalType": "uint256",
          "name": "",
          "type": "uint256"
        }
      ],
      "stateMutability": "view",
      "type": "function"
    },
    {
      "inputs": [],
      "name": "getCitizenCount",
      "outputs": [
        {
          "internalType": "uint256",
          "name": "",
          "type": "uint256"
        }
      ],
      "stateMutability": "view",
      "type": "function"
    },
    {
      "inputs": [
        {
          "internalType": "uint256",
          "name": "tallyId",
          "type": "uint256"
        }
      ],
      "name": "getCitizenVote",
      "outputs": [
        {
          "internalType": "enum IAssemblyCore.VoteStatus",
          "name": "",
          "type": "uint8"
        }
      ],
      "stateMutability": "view",
      "type": "function"
    },
    {
      "inputs": [],
      "name": "getCreator",
      "outputs": [
        {
          "internalType": "address",
          "name": "",
          "type": "address"
        }
      ],
      "stateMutability": "view",
      "type": "function"
    },
    {
      "inputs": [],
      "name": "getDelegateCount",
      "outputs": [
        {
          "internalType": "uint256",
          "name": "",
          "type": "uint256"
        }
      ],
      "stateMutability": "view",
      "type": "function"
    },
    {
      "inputs": [
        {
          "internalType": "address",
          "name": "_delegate",
          "type": "address"
        }
      ],
      "name": "getDelegateSeat",
      "outputs": [
        {
          "internalType": "uint256",
          "name": "",
          "type": "uint256"
        }
      ],
      "stateMutability": "view",
      "type": "function"
    },
    {
      "inputs": [],
      "name": "getDelegateSeatAppointmentCounts",
      "outputs": [
        {
          "internalType": "address[]",
          "name": "",
          "type": "address[]"
        },
        {
          "internalType": "uint256[]",
          "name": "",
          "type": "uint256[]"
        }
      ],
      "stateMutability": "view",
      "type": "function"
    },
    {
      "inputs": [],
      "name": "getDelegateSeats",
      "outputs": [
        {
          "internalType": "address[]",
          "name": "",
          "type": "address[]"
        }
      ],
      "stateMutability": "view",
      "type": "function"
    },
    {
      "inputs": [
        {
          "internalType": "uint256",
          "name": "tallyId",
          "type": "uint256"
        }
      ],
      "name": "getDelegateVote",
      "outputs": [
        {
          "internalType": "bool",
          "name": "",
          "type": "bool"
        }
      ],
      "stateMutability": "view",
      "type": "function"
    },
    {
      "inputs": [],
      "name": "getDelegationRewardRate",
      "outputs": [
        {
          "internalType": "uint256",
          "name": "",
          "type": "uint256"
        }
      ],
      "stateMutability": "view",
      "type": "function"
    },
    {
      "inputs": [],
      "name": "getExecRewardExponentMax",
      "outputs": [
        {
          "internalType": "uint256",
          "name": "",
          "type": "uint256"
        }
      ],
      "stateMutability": "view",
      "type": "function"
    },
    {
      "inputs": [],
      "name": "getFaucet",
      "outputs": [
        {
          "internalType": "address",
          "name": "",
          "type": "address"
        }
      ],
      "stateMutability": "view",
      "type": "function"
    },
    {
      "inputs": [],
      "name": "getLastSnapshotTimestamp",
      "outputs": [
        {
          "internalType": "uint256",
          "name": "",
          "type": "uint256"
        }
      ],
      "stateMutability": "view",
      "type": "function"
    },
    {
      "inputs": [],
      "name": "getOwner",
      "outputs": [
        {
          "internalType": "address",
          "name": "",
          "type": "address"
        }
      ],
      "stateMutability": "view",
      "type": "function"
    },
    {
      "inputs": [],
      "name": "getPoh",
      "outputs": [
        {
          "internalType": "address",
          "name": "",
          "type": "address"
        }
      ],
      "stateMutability": "view",
      "type": "function"
    },
    {
      "inputs": [],
      "name": "getQuorum",
      "outputs": [
        {
          "internalType": "uint256",
          "name": "",
          "type": "uint256"
        }
      ],
      "stateMutability": "view",
      "type": "function"
    },
    {
      "inputs": [],
      "name": "getReferralRewardParams",
      "outputs": [
        {
          "internalType": "uint256",
          "name": "",
          "type": "uint256"
        },
        {
          "internalType": "uint256",
          "name": "",
          "type": "uint256"
        }
      ],
      "stateMutability": "view",
      "type": "function"
    },
    {
      "inputs": [
        {
          "internalType": "address",
          "name": "account",
          "type": "address"
        }
      ],
      "name": "getRewardBalance",
      "outputs": [
        {
          "internalType": "uint256",
          "name": "",
          "type": "uint256"
        }
      ],
      "stateMutability": "view",
      "type": "function"
    },
    {
      "inputs": [],
      "name": "getSeatCount",
      "outputs": [
        {
          "internalType": "uint256",
          "name": "",
          "type": "uint256"
        }
      ],
      "stateMutability": "view",
      "type": "function"
    },
    {
      "inputs": [
        {
          "internalType": "uint256",
          "name": "tallyId",
          "type": "uint256"
        }
      ],
      "name": "getTally",
      "outputs": [
        {
          "components": [
            {
              "internalType": "uint256",
              "name": "proposalId",
              "type": "uint256"
            },
            {
              "internalType": "uint256",
              "name": "submissionTime",
              "type": "uint256"
            },
            {
              "internalType": "uint256",
              "name": "revocationStartTime",
              "type": "uint256"
            },
            {
              "internalType": "uint256",
              "name": "votingEndTime",
              "type": "uint256"
            },
            {
              "internalType": "uint256",
              "name": "delegatedYays",
              "type": "uint256"
            },
            {
              "internalType": "uint256",
              "name": "citizenYays",
              "type": "uint256"
            },
            {
              "internalType": "uint256",
              "name": "citizenNays",
              "type": "uint256"
            },
            {
              "internalType": "uint256",
              "name": "citizenCount",
              "type": "uint256"
            },
            {
              "internalType": "enum IAssemblyCore.TallyStatus",
              "name": "status",
              "type": "uint8"
            }
          ],
          "internalType": "struct IAssemblyCore.Tally",
          "name": "",
          "type": "tuple"
        }
      ],
      "stateMutability": "view",
      "type": "function"
    },
    {
      "inputs": [],
      "name": "getTallyCount",
      "outputs": [
        {
          "internalType": "uint256",
          "name": "",
          "type": "uint256"
        }
      ],
      "stateMutability": "view",
      "type": "function"
    },
    {
      "inputs": [],
      "name": "getTallyDuration",
      "outputs": [
        {
          "internalType": "uint256",
          "name": "",
          "type": "uint256"
        }
      ],
      "stateMutability": "view",
      "type": "function"
    },
    {
      "inputs": [
        {
          "internalType": "uint256",
          "name": "tallyId",
          "type": "uint256"
        }
      ],
      "name": "getTallyPhase",
      "outputs": [
        {
          "internalType": "enum IAssemblyCore.TallyPhase",
          "name": "",
          "type": "uint8"
        }
      ],
      "stateMutability": "view",
      "type": "function"
    },
    {
      "inputs": [],
      "name": "getVotingPercentThreshold",
      "outputs": [
        {
          "internalType": "uint256",
          "name": "",
          "type": "uint256"
        }
      ],
      "stateMutability": "view",
      "type": "function"
    },
    {
      "inputs": [],
      "name": "getWallet",
      "outputs": [
        {
          "internalType": "address",
          "name": "",
          "type": "address"
        }
      ],
      "stateMutability": "view",
      "type": "function"
    },
    {
      "inputs": [
        {
          "internalType": "address",
          "name": "poh",
          "type": "address"
        },
        {
          "internalType": "address",
          "name": "owner",
          "type": "address"
        },
        {
          "internalType": "address",
          "name": "wallet",
          "type": "address"
        },
        {
          "internalType": "uint256",
          "name": "seatCount",
          "type": "uint256"
        },
        {
          "internalType": "uint256",
          "name": "citizenCountQuorum",
          "type": "uint256"
        },
        {
          "internalType": "uint256",
          "name": "tallyDuration",
          "type": "uint256"
        },
        {
          "internalType": "address",
          "name": "faucet",
          "type": "address"
        },
        {
          "internalType": "uint256",
          "name": "delegationRewardRate",
          "type": "uint256"
        },
        {
          "internalType": "uint256",
          "name": "referralReward",
          "type": "uint256"
        },
        {
          "internalType": "uint256",
          "name": "execRewardExponentMax",
          "type": "uint256"
        }
      ],
      "name": "initialize",
      "outputs": [],
      "stateMutability": "nonpayable",
      "type": "function"
    },
    {
      "inputs": [
        {
          "internalType": "address",
          "name": "_human",
          "type": "address"
        }
      ],
      "name": "isCitizen",
      "outputs": [
        {
          "internalType": "bool",
          "name": "",
          "type": "bool"
        }
      ],
      "stateMutability": "view",
      "type": "function"
    },
    {
      "inputs": [
        {
          "internalType": "address",
          "name": "_delegate",
          "type": "address"
        }
      ],
      "name": "isDelegate",
      "outputs": [
        {
          "internalType": "bool",
          "name": "",
          "type": "bool"
        }
      ],
      "stateMutability": "view",
      "type": "function"
    },
    {
      "inputs": [
        {
          "internalType": "address",
          "name": "_delegate",
          "type": "address"
        }
      ],
      "name": "isDelegateSeated",
      "outputs": [
        {
          "internalType": "bool",
          "name": "",
          "type": "bool"
        }
      ],
      "stateMutability": "view",
      "type": "function"
    },
    {
      "inputs": [
        {
          "internalType": "address",
          "name": "account",
          "type": "address"
        }
      ],
      "name": "isHuman",
      "outputs": [
        {
          "internalType": "bool",
          "name": "",
          "type": "bool"
        }
      ],
      "stateMutability": "view",
      "type": "function"
    },
    {
      "inputs": [],
      "name": "isQuorumReached",
      "outputs": [
        {
          "internalType": "bool",
          "name": "",
          "type": "bool"
        }
      ],
      "stateMutability": "view",
      "type": "function"
    },
    {
      "inputs": [
        {
          "internalType": "address",
          "name": "referred",
          "type": "address"
        }
      ],
      "name": "isReferredClaimed",
      "outputs": [
        {
          "internalType": "bool",
          "name": "",
          "type": "bool"
        }
      ],
      "stateMutability": "view",
      "type": "function"
    },
    {
      "inputs": [],
      "name": "isTestMode",
      "outputs": [
        {
          "internalType": "bool",
          "name": "",
          "type": "bool"
        }
      ],
      "stateMutability": "view",
      "type": "function"
    },
    {
      "inputs": [
        {
          "internalType": "address",
          "name": "account",
          "type": "address"
        }
      ],
      "name": "isTrusted",
      "outputs": [
        {
          "internalType": "bool",
          "name": "",
          "type": "bool"
        }
      ],
      "stateMutability": "view",
      "type": "function"
    },
    {
      "inputs": [
        {
          "internalType": "address",
          "name": "newCreator",
          "type": "address"
        }
      ],
      "name": "setCreator",
      "outputs": [],
      "stateMutability": "nonpayable",
      "type": "function"
    },
    {
      "inputs": [
        {
          "internalType": "uint256",
          "name": "delegationRewardRate",
          "type": "uint256"
        }
      ],
      "name": "setDelegationRewardRate",
      "outputs": [],
      "stateMutability": "nonpayable",
      "type": "function"
    },
    {
      "inputs": [
        {
          "internalType": "uint256",
          "name": "execRewardExponentMax",
          "type": "uint256"
        }
      ],
      "name": "setExecRewardExponentMax",
      "outputs": [],
      "stateMutability": "nonpayable",
      "type": "function"
    },
    {
      "inputs": [
        {
          "internalType": "uint256",
          "name": "newCitizenCountQuorum",
          "type": "uint256"
        }
      ],
      "name": "setQuorum",
      "outputs": [],
      "stateMutability": "nonpayable",
      "type": "function"
    },
    {
      "inputs": [
        {
          "internalType": "uint256",
          "name": "referredAmount",
          "type": "uint256"
        },
        {
          "internalType": "uint256",
          "name": "referrerAmount",
          "type": "uint256"
        }
      ],
      "name": "setReferralRewardParams",
      "outputs": [],
      "stateMutability": "nonpayable",
      "type": "function"
    },
    {
      "inputs": [
        {
          "internalType": "uint256",
          "name": "newSeatCount",
          "type": "uint256"
        }
      ],
      "name": "setSeatCount",
      "outputs": [],
      "stateMutability": "nonpayable",
      "type": "function"
    },
    {
      "inputs": [
        {
          "internalType": "uint256",
          "name": "newTallyDuration",
          "type": "uint256"
        }
      ],
      "name": "setTallyDuration",
      "outputs": [],
      "stateMutability": "nonpayable",
      "type": "function"
    },
    {
      "inputs": [
        {
          "internalType": "bool",
          "name": "testMode",
          "type": "bool"
        }
      ],
      "name": "setTestMode",
      "outputs": [],
      "stateMutability": "nonpayable",
      "type": "function"
    },
    {
      "inputs": [
        {
          "internalType": "uint256",
          "name": "newVotingPercentThreshold",
          "type": "uint256"
        }
      ],
      "name": "setVotingPercentThreshold",
      "outputs": [],
      "stateMutability": "nonpayable",
      "type": "function"
    },
    {
      "inputs": [
        {
          "internalType": "uint256",
          "name": "tallyId",
          "type": "uint256"
        }
      ],
      "name": "tallyUp",
      "outputs": [],
      "stateMutability": "nonpayable",
      "type": "function"
    },
    {
      "inputs": [],
      "name": "totalSupply",
      "outputs": [
        {
          "internalType": "uint256",
          "name": "",
          "type": "uint256"
        }
      ],
      "stateMutability": "view",
      "type": "function"
    },
    {
      "inputs": [
        {
          "internalType": "address",
          "name": "recipient",
          "type": "address"
        },
        {
          "internalType": "uint256",
          "name": "amount",
          "type": "uint256"
        }
      ],
      "name": "transfer",
      "outputs": [
        {
          "internalType": "bool",
          "name": "",
          "type": "bool"
        }
      ],
      "stateMutability": "nonpayable",
      "type": "function"
    },
    {
      "inputs": [
        {
          "internalType": "address",
          "name": "sender",
          "type": "address"
        },
        {
          "internalType": "address",
          "name": "recipient",
          "type": "address"
        },
        {
          "internalType": "uint256",
          "name": "amount",
          "type": "uint256"
        }
      ],
      "name": "transferFrom",
      "outputs": [
        {
          "internalType": "bool",
          "name": "",
          "type": "bool"
        }
      ],
      "stateMutability": "nonpayable",
      "type": "function"
    },
    {
      "inputs": [
        {
          "internalType": "address",
          "name": "newImplementation",
          "type": "address"
        }
      ],
      "name": "upgradeTo",
      "outputs": [],
      "stateMutability": "nonpayable",
      "type": "function"
    },
    {
      "inputs": [
        {
          "internalType": "address",
          "name": "newImplementation",
          "type": "address"
        },
        {
          "internalType": "bytes",
          "name": "data",
          "type": "bytes"
        }
      ],
      "name": "upgradeToAndCall",
      "outputs": [],
      "stateMutability": "payable",
      "type": "function"
    }
  ],
  "bytecode": "0x60a06040523060805234801561001457600080fd5b50608051614b94610045600039600081816115a6015281816115e6015281816119bc01526119fc0152614b946000f3fe6080604052600436106103ee5760003560e01c80637c27ff8611610208578063c98e5a8211610118578063dd62ed3e116100ab578063f0c06aa51161007a578063f0c06aa514610bb1578063f3caad0314610bd1578063f72c436f14610c0a578063f73379f614610c2a578063fe0d94c114610c4a57600080fd5b8063dd62ed3e14610b29578063e333717a14610b44578063e7ddd94314610b64578063eb0772c914610b8457600080fd5b8063d4ca6ccb116100e7578063d4ca6ccb14610aa9578063d5a849e914610abe578063d7be4e2914610af4578063dbb7c64e14610b0957600080fd5b8063c98e5a8214610a3e578063cdbd7f6f14610a74578063d36ff270146105b8578063d47ac96914610a9457600080fd5b80639fa84c401161019b578063af41224f1161016a578063af41224f146109bf578063b4819e7b146109df578063b81cab4b146109f4578063c1ba4e5914610a09578063c26c12eb14610a2957600080fd5b80639fa84c4014610940578063a7264dee14610968578063a9059cbb146104f0578063ab2225df146109a157600080fd5b8063893d20e8116101d7578063893d20e8146108a95780638c35e89f146108c7578063969291e8146108e757806396d648791461092057600080fd5b80637c27ff86146108345780637f4d45371461084957806382f41cd114610869578063854845d21461088957600080fd5b80632a95cd1911610303578063580d9df0116102965780636c69ac30116102655780636c69ac30146107875780636f88c4401461079c57806370a08231146107bc578063732d85b4146107dc5780637a3030e01461081257600080fd5b8063580d9df0146107135780635e9cc2a91461073357806360efe48c1461075357806361929d8a1461076757600080fd5b806338a3b494116102d257806338a3b494146106a85780633f516018146106bd5780634a6c68b0146106dd5780634f1ef2861461070057600080fd5b80632a95cd19146106405780632c4d844a146106555780633659cfe614610673578063372500ab1461069357600080fd5b8063132996041161038657806318160ddd1161035557806318160ddd146105b85780631ff1292f146105cd57806320d48a50146105eb57806323b872dd1461060b57806328bb86631461062b57600080fd5b80631329960414610543578063154c5faa146105615780631714bca21461058357806317d1e3ea146105a357600080fd5b806307779627116103c257806307779627146104a7578063095ea7b3146104f05780630b82d23c146105105780630ee2cb101461052557600080fd5b80625927ac146103f3578063026d1e2f1461042657806303b7f42614610465578063071836e714610492575b600080fd5b3480156103ff57600080fd5b5061041361040e366004614222565b610c6a565b6040519081526020015b60405180910390f35b34801561043257600080fd5b50336000908152609f60205260409020546001600160a01b03165b6040516001600160a01b03909116815260200161041d565b34801561047157600080fd5b50610485610480366004614222565b610eb9565b60405161041d9190614261565b34801561049e57600080fd5b50609d54610413565b3480156104b357600080fd5b506104e06104c236600461428b565b6001600160a01b03166000908152609e602052604090205460ff1690565b604051901515815260200161041d565b3480156104fc57600080fd5b506104e061050b3660046142a6565b610efa565b34801561051c57600080fd5b5060b454610413565b34801561053157600080fd5b50609a546001600160a01b031661044d565b34801561054f57600080fd5b506098546001600160a01b031661044d565b34801561056d57600080fd5b5061058161057c3660046142de565b610f03565b005b34801561058f57600080fd5b5061041361059e366004614222565b611121565b3480156105af57600080fd5b5060aa54610413565b3480156105c457600080fd5b50609b54610413565b3480156105d957600080fd5b506105816105e836600461430e565b50565b3480156105f757600080fd5b50610581610606366004614222565b61150e565b34801561061757600080fd5b506104e061062636600461432b565b611591565b34801561063757600080fd5b5060a654610413565b34801561064c57600080fd5b5060ac54610413565b34801561066157600080fd5b5060ad546001600160a01b031661044d565b34801561067f57600080fd5b5061058161068e36600461428b565b61159b565b34801561069f57600080fd5b50610581611661565b3480156106b457600080fd5b5060a954610413565b3480156106c957600080fd5b506105816106d836600461428b565b61176d565b3480156106e957600080fd5b506106f2611877565b60405161041d9291906143ab565b61058161070e366004614418565b6119b1565b34801561071f57600080fd5b5061058161072e3660046144da565b611a6b565b34801561073f57600080fd5b506104e061074e366004614222565b611b01565b34801561075f57600080fd5b5060006104e0565b34801561077357600080fd5b5061058161078236600461428b565b611d07565b34801561079357600080fd5b5061058161213e565b3480156107a857600080fd5b506105816107b7366004614222565b6122d0565b3480156107c857600080fd5b506104136107d736600461428b565b612652565b3480156107e857600080fd5b506104136107f736600461428b565b6001600160a01b0316600090815260a0602052604090205490565b34801561081e57600080fd5b506108276126d6565b60405161041d91906144fc565b34801561084057600080fd5b5060b054610413565b34801561085557600080fd5b5061058161086436600461428b565b612738565b34801561087557600080fd5b50610581610884366004614222565b612957565b34801561089557600080fd5b506104e06108a4366004614222565b612a5b565b3480156108b557600080fd5b506099546001600160a01b031661044d565b3480156108d357600080fd5b506105816108e2366004614222565b612aab565b3480156108f357600080fd5b506104e061090236600461428b565b6001600160a01b0316600090815260a2602052604090205460ff1690565b34801561092c57600080fd5b506104e061093b36600461428b565b612b2e565b34801561094c57600080fd5b5060b65460b7546040805192835260208301919091520161041d565b34801561097457600080fd5b506104e061098336600461428b565b6001600160a01b0316600090815260b5602052604090205460ff1690565b3480156109ad57600080fd5b506097546001600160a01b031661044d565b3480156109cb57600080fd5b506105816109da366004614222565b612b60565b3480156109eb57600080fd5b50610581612c7c565b348015610a0057600080fd5b50610413603281565b348015610a1557600080fd5b50610581610a24366004614222565b612e08565b348015610a3557600080fd5b5060ab54610413565b348015610a4a57600080fd5b50610413610a5936600461428b565b6001600160a01b0316600090815260a3602052604090205490565b348015610a8057600080fd5b50610581610a8f366004614222565b612ebb565b348015610aa057600080fd5b50610581612fc6565b348015610ab557600080fd5b5060af54610413565b348015610aca57600080fd5b50610413610ad936600461428b565b6001600160a01b0316600090815260ae602052604090205490565b348015610b0057600080fd5b506104e06130d5565b348015610b1557600080fd5b50610581610b2436600461428b565b61310d565b348015610b3557600080fd5b5061041361050b36600461450f565b348015610b5057600080fd5b50610581610b5f3660046142de565b61333e565b348015610b7057600080fd5b50610485610b7f366004614222565b613601565b348015610b9057600080fd5b50610ba4610b9f366004614222565b613651565b60405161041d9190614542565b348015610bbd57600080fd5b50610581610bcc36600461428b565b613706565b348015610bdd57600080fd5b506104e0610bec36600461428b565b6001600160a01b03166000908152609c602052604090205460ff1690565b348015610c1657600080fd5b506104e0610c2536600461428b565b6137f8565b348015610c3657600080fd5b50610581610c453660046145b7565b6138a9565b348015610c5657600080fd5b506104e0610c65366004614222565b613947565b609954600090600160a01b900460ff16610c9f5760405162461bcd60e51b8152600401610c9690614647565b60405180910390fd5b610ca833612b2e565b610cc45760405162461bcd60e51b8152600401610c969061468c565b609860009054906101000a90046001600160a01b03166001600160a01b031663c08cc02d6040518163ffffffff1660e01b8152600401602060405180830381865afa158015610d17573d6000803e3d6000fd5b505050506040513d601f19601f82011682018060405250810190610d3b91906146d9565b8210610d7d5760405162461bcd60e51b815260206004820152601160248201527015dc9bdb99c81c1c9bdc1bdcd85b081a59607a1b6044820152606401610c96565b610d85614111565b828152600061010082015242602082015260ac54610da590600290614708565b8160200151610db4919061472a565b604082015260ac546020820151610dcb919061472a565b60608201908152609b5460e0830190815260a654600081815260a56020908152604091829020865181559086015160018083019190915591860151600282015593516003850155608085015160048086019190915560a0860151600586015560c08601516006860155925160078501556101008501516008850180549395879590949293919260ff191691908490811115610e6857610e6861423b565b0217905550506040518291507f6f8ca1fb2749a3f08b1d56480c4beeb591c0380718ff6aba526808dbb78176c390600090a260a68054906000610eaa83614742565b9091555090925050505b919050565b600081815260a5602052604081206002810154421015610edc5750600092915050565b8060030154421015610ef15750600192915050565b50600292915050565b60005b92915050565b609954600160a01b900460ff16610f2c5760405162461bcd60e51b8152600401610c9690614647565b60a6548210610f6e5760405162461bcd60e51b815260206004820152600e60248201526d15dc9bdb99c81d185b1b1e481a5960921b6044820152606401610c96565b336000908152609e602052604090205460ff16610f9d5760405162461bcd60e51b8152600401610c969061475d565b6000610fa883610eb9565b90506002816002811115610fbe57610fbe61423b565b14156110035760405162461bcd60e51b8152602060048201526014602482015273151a19481d9bdd1a5b99c81a185cc8195b99195960621b6044820152606401610c96565b60018160028111156110175761101761423b565b141561107f5760405162461bcd60e51b815260206004820152603160248201527f44656c6567617465732063616e6e6f7420766f746520647572696e6720746865604482015270207265766f636174696f6e20706861736560781b6064820152608401610c96565b600083815260a76020908152604080832033845290915290205460ff16151582151514156110bf5760405162461bcd60e51b8152600401610c969061478d565b600083815260a7602090815260408083203380855290835292819020805460ff1916861515908117909155905190815285917fe979de3597ad4e4d8e1bfa94b2e89c63bbe7812f46a6954e35d1464e2573110d910160405180910390a3505050565b609954600090600160a01b900460ff1661114d5760405162461bcd60e51b8152600401610c9690614647565b61115633612b2e565b6111725760405162461bcd60e51b8152600401610c969061468c565b60aa5482106111b75760405162461bcd60e51b81526020600482015260116024820152702bb937b7339039b2b0ba10373ab6b132b960791b6044820152606401610c96565b336000908152609e602052604090205460ff166111e65760405162461bcd60e51b8152600401610c969061475d565b33600090815260a2602052604090205460ff161561123f5760405162461bcd60e51b8152602060048201526016602482015275165bdd48185c9948185b1c9958591e481cd9585d195960521b6044820152606401610c96565b60a15460009083106112a65760a180546001818101835560008390527faadc37b8ba5645e62f4546802db221593a94729ccbfc5a97d01365a88f64987890910180546001600160a01b03191633179055905461129b91906147ce565b925060019050611437565b609e600060a185815481106112bd576112bd6147e5565b60009182526020808320909101546001600160a01b0316835282019290925260400190205460ff1661133e57600060a2600060a18681548110611302576113026147e5565b6000918252602080832091909101546001600160a01b031683528201929092526040019020805460ff1916911515919091179055506001611437565b60a0600060a18581548110611355576113556147e5565b60009182526020808320909101546001600160a01b0316835282810193909352604091820181205433825260a09093522054116113e65760405162461bcd60e51b815260206004820152602960248201527f4e6f7420656e6f7567687420636974697a656e7320737570706f7274207468656044820152682064656c656761746560b81b6064820152608401610c96565b600060a2600060a186815481106113ff576113ff6147e5565b6000918252602080832091909101546001600160a01b031683528201929092526040019020805460ff19169115159190911790555060015b80156114cf573360a18481548110611451576114516147e5565b600091825260208083209190910180546001600160a01b0319166001600160a01b0394909416939093179092553380825260a283526040808320805460ff1916600117905560a3909352828220869055915185917fafd38fa311822cd787c3f1873d5787708205e5b15dcd4fd3b1596aa21bcbe86491a35090919050565b60405162461bcd60e51b8152602060048201526014602482015273446964206e6f742075706461746520736561747360601b6044820152606401610c96565b609954600160a01b900460ff166115375760405162461bcd60e51b8152600401610c9690614647565b6099546001600160a01b031633148061154e575060005b61156a5760405162461bcd60e51b8152600401610c96906147fb565b60b45481141561158c5760405162461bcd60e51b8152600401610c9690614832565b60b455565b60005b9392505050565b306001600160a01b037f00000000000000000000000000000000000000000000000000000000000000001614156115e45760405162461bcd60e51b8152600401610c969061487b565b7f00000000000000000000000000000000000000000000000000000000000000006001600160a01b0316611616613a4c565b6001600160a01b03161461163c5760405162461bcd60e51b8152600401610c96906148c7565b61164581613a7a565b604080516000808252602082019092526105e891839190613b1e565b609954600160a01b900460ff1661168a5760405162461bcd60e51b8152600401610c9690614647565b33600090815260ae60205260409020546116e65760405162461bcd60e51b815260206004820152601b60248201527f596f7572207265776172642062616c616e6365206973207a65726f00000000006044820152606401610c96565b60ad5433600081815260ae602052604090819020549051634decdde360e11b81526060936001600160a01b031692639bd9bbc69261172892869060040161496f565b600060405180830381600087803b15801561174257600080fd5b505af1158015611756573d6000803e3d6000fd5b505033600090815260ae6020526040812055505050565b609a546001600160a01b031633146117975760405162461bcd60e51b8152600401610c96906147fb565b609a546001600160a01b03828116911614156117ff5760405162461bcd60e51b815260206004820152602160248201527f546865206e65772061646472657373206d75737420626520646966666572656e6044820152601d60fa1b6064820152608401610c96565b6001600160a01b0381166118555760405162461bcd60e51b815260206004820152601e60248201527f43726561746f7220616464726573732063616e6e6f74206265207a65726f00006044820152606401610c96565b609a80546001600160a01b0319166001600160a01b0392909216919091179055565b60a15460609081908190156119495760a15467ffffffffffffffff8111156118a1576118a1614402565b6040519080825280602002602001820160405280156118ca578160200160208202803683370190505b50905060005b60a1548110156119475760a0600060a183815481106118f1576118f16147e5565b60009182526020808320909101546001600160a01b03168352820192909252604001902054825183908390811061192a5761192a6147e5565b60209081029190910101528061193f81614742565b9150506118d0565b505b60a181818054806020026020016040519081016040528092919081815260200182805480156119a157602002820191906000526020600020905b81546001600160a01b03168152600190910190602001808311611983575b5050505050915092509250509091565b306001600160a01b037f00000000000000000000000000000000000000000000000000000000000000001614156119fa5760405162461bcd60e51b8152600401610c969061487b565b7f00000000000000000000000000000000000000000000000000000000000000006001600160a01b0316611a2c613a4c565b6001600160a01b031614611a525760405162461bcd60e51b8152600401610c96906148c7565b611a5b82613a7a565b611a6782826001613b1e565b5050565b609954600160a01b900460ff16611a945760405162461bcd60e51b8152600401610c9690614647565b6099546001600160a01b0316331480611aab575060005b611ac75760405162461bcd60e51b8152600401610c96906147fb565b8160b654141580611ada57508060b75414155b611af65760405162461bcd60e51b8152600401610c9690614832565b60b69190915560b755565b600060026065541415611b565760405162461bcd60e51b815260206004820152601f60248201527f5265656e7472616e637947756172643a207265656e7472616e742063616c6c006044820152606401610c96565b600260655560a6548210611ba45760405162461bcd60e51b81526020600482015260156024820152742bb937b733903a30b6363c9034b210373ab6b132b960591b6044820152606401610c96565b600082815260a5602052604090206003600882015460ff166004811115611bcd57611bcd61423b565b14611c375760405162461bcd60e51b815260206004820152603460248201527f5468652070726f706f73616c20776173206e6f7420617070726f766564206f72604482015273081dd85cc8185b1c9958591e48195b9858dd195960621b6064820152608401610c96565b6098548154604051630d61b51960e01b81526001600160a01b0390921691630d61b51991611c6b9160040190815260200190565b6020604051808303816000875af1158015611c8a573d6000803e3d6000fd5b505050506040513d601f19601f82011682018060405250810190611cae9190614996565b15611cf75760088101805460ff1916600417905560405183907f440b4df27ef0cbe1e8236588eee6d56dba92201e0ce4128f872e74dc253a74ee90600090a26001915050611cfd565b60009150505b6001606555919050565b609954600160a01b900460ff16611d305760405162461bcd60e51b8152600401610c9690614647565b6001600160a01b038116331415611d935760405162461bcd60e51b815260206004820152602160248201527f5265666572726572732063616e6e6f74207265666572207468656d73656c76656044820152607360f81b6064820152608401610c96565b336000908152609c602052604090205460ff1680611dc05750336000908152609e602052604090205460ff165b611e325760405162461bcd60e51b815260206004820152603d60248201527f546f2062652072656665727265642c20666972737420796f75206d757374206260448201527f65636f6d65206120636974697a656e206f7220612064656c65676174650000006064820152608401610c96565b6001600160a01b0381166000908152609c602052604090205460ff1680611e7157506001600160a01b0381166000908152609e602052604090205460ff165b611ed35760405162461bcd60e51b815260206004820152602d60248201527f596f7572207265666572726572206d757374206265206120636974697a656e2060448201526c6f7220612064656c656761746560981b6064820152608401610c96565b33600090815260b5602052604090205460ff1615611f495760405162461bcd60e51b815260206004820152602d60248201527f596f75206861766520616c726561647920636c61696d656420796f757220726560448201526c19995c9c995908185b5bdd5b9d609a1b6064820152608401610c96565b600060b6541180611f5c5750600060b754115b611fb85760405162461bcd60e51b815260206004820152602760248201527f546865726520617265206e6f20726566657272616c20726577617264732063756044820152667272656e746c7960c81b6064820152608401610c96565b60b6546060901561202c5760ad5460b654604051634decdde360e11b81526001600160a01b0390921691639bd9bbc691611ff991339190869060040161496f565b600060405180830381600087803b15801561201357600080fd5b505af1158015612027573d6000803e3d6000fd5b505050505b60b6546040805133815260208101929092527fe7e15037b577ae985e6019722e882f64c5c6a2124ccc573bab8f79bda0a0c551910160405180910390a160b754156120da5760ad5460b754604051634decdde360e11b81526001600160a01b0390921691639bd9bbc6916120a791869190869060040161496f565b600060405180830381600087803b1580156120c157600080fd5b505af11580156120d5573d6000803e3d6000fd5b505050505b60b754604080516001600160a01b038516815260208101929092527fe7e15037b577ae985e6019722e882f64c5c6a2124ccc573bab8f79bda0a0c551910160405180910390a1505033600090815260b560205260409020805460ff19166001179055565b609954600160a01b900460ff166121675760405162461bcd60e51b8152600401610c9690614647565b612170336137f8565b6121b25760405162461bcd60e51b81526020600482015260136024820152722cb7ba9030b932903737ba103090343ab6b0b760691b6044820152606401610c96565b33600090815260a4602052604090205460ff16156122085760405162461bcd60e51b8152602060048201526013602482015272165bdd48185c99481b9bdd081d1c9d5cdd1959606a1b6044820152606401610c96565b336000908152609e602052604090205460ff16156122685760405162461bcd60e51b815260206004820152601a60248201527f596f752061726520612064656c656761746520616c72656164790000000000006044820152606401610c96565b336000908152609e60205260408120805460ff19166001179055609d80549161229083614742565b9091555050609d5460405190815233907fd89827d0cc54c46c286962536f7489aac586f4b32c224f88d34c04c08779dfdb906020015b60405180910390a2565b609954600160a01b900460ff166122f95760405162461bcd60e51b8152600401610c9690614647565b60a65481106123425760405162461bcd60e51b81526020600482015260156024820152742bb937b733903a30b6363c9034b210373ab6b132b960591b6044820152606401610c96565b600081815260a56020526040812090600882015460ff16600481111561236a5761236a61423b565b148061238e57506001600882015460ff16600481111561238c5761238c61423b565b145b6123da5760405162461bcd60e51b815260206004820152601b60248201527f5468652074616c6c792063616e6e6f74206265206368616e67656400000000006044820152606401610c96565b609b546007820181905560a9546000916064916123f6916149b3565b6124009190614708565b905060008060005b60a1548110156124bf57600086815260a76020526040812060a1805491929184908110612437576124376147e5565b60009182526020808320909101546001600160a01b0316835282019290925260400190205460ff16156124ad5760a0600060a1838154811061247b5761247b6147e5565b60009182526020808320909101546001600160a01b031683528201929092526040019020546124aa908361472a565b91505b806124b781614742565b915050612408565b50600484018190558281116124d55760006124d8565b60015b915082846005015411806124ef5750828460060154115b1561251057836006015484600501541161250a57600061250d565b60015b91505b600261251b86610eb9565b600281111561252c5761252c61423b565b14156125ed5761253a6130d5565b1580156125525750609a546001600160a01b03163314155b156125b65760405162461bcd60e51b815260206004820152602e60248201527f54616c6c792063616e6e6f7420626520656e6465642061732071756f72756d2060448201526d1a5cc81b9bdd081c995858da195960921b6064820152608401610c96565b816125c25760026125c5565b60035b60088501805460ff191660018360048111156125e3576125e361423b565b0217905550612620565b816125f95760006125fc565b60015b60088501805460ff1916600183600481111561261a5761261a61423b565b02179055505b60405185907f1ffc04efaa57614526f88ed63f7e89052f13457b5acc6c000379e9d02b2262fb90600090a25050505050565b6001600160a01b0381166000908152609e602052604081205460ff166126ba5760405162461bcd60e51b815260206004820152601960248201527f41646472657373206973206e6f7420612064656c6567617465000000000000006044820152606401610c96565b506001600160a01b0316600090815260a0602052604090205490565b606060a180548060200260200160405190810160405280929190818152602001828054801561272e57602002820191906000526020600020905b81546001600160a01b03168152600190910190602001808311612710575b5050505050905090565b609954600160a01b900460ff166127615760405162461bcd60e51b8152600401610c9690614647565b336000908152609c602052604090205460ff166127905760405162461bcd60e51b8152600401610c96906149d2565b6001600160a01b0381166000908152609e602052604090205460ff1661280a5760405162461bcd60e51b815260206004820152602960248201527f546865206164647265737320646f6573206e6f742062656c6f6e6720746f20616044820152682064656c656761746560b81b6064820152608401610c96565b336000908152609f60205260409020546001600160a01b03828116911614156128815760405162461bcd60e51b815260206004820152602360248201527f596f7520616c7265616479206170706f696e74656420746869732064656c656760448201526261746560e81b6064820152608401610c96565b336000908152609f60205260409020546001600160a01b0316156128d657336000908152609f60209081526040808320546001600160a01b0316835260a090915281208054916128d083614a01565b91905055505b336000908152609f6020908152604080832080546001600160a01b0319166001600160a01b038616908117909155835260a0909152812080549161291983614742565b909155505060405133906001600160a01b038316907fefeabce267f0ba32494ce1f7137982c6743a97bab3e99166b2120ca653ae288690600090a350565b609954600160a01b900460ff166129805760405162461bcd60e51b8152600401610c9690614647565b6099546001600160a01b0316331480612997575060005b6129b35760405162461bcd60e51b8152600401610c96906147fb565b8060ac5414156129d55760405162461bcd60e51b8152600401610c9690614832565b60008111612a1f5760405162461bcd60e51b8152602060048201526017602482015276496e76616c696420706172616d657465722076616c756560481b6044820152606401610c96565b60ac8190556040518181527fe829da592446145e601afcdff1e3c4039636552e3aa3bc21c25283bc82f2a80a906020015b60405180910390a150565b336000908152609e602052604081205460ff16612a8a5760405162461bcd60e51b8152600401610c969061475d565b50600090815260a76020908152604080832033845290915290205460ff1690565b609954600160a01b900460ff16612ad45760405162461bcd60e51b8152600401610c9690614647565b6099546001600160a01b0316331480612aeb575060005b612b075760405162461bcd60e51b8152600401610c96906147fb565b8060af541415612b295760405162461bcd60e51b8152600401610c9690614832565b60af55565b6000612b39826137f8565b8015610efd5750506001600160a01b0316600090815260a4602052604090205460ff161590565b609954600160a01b900460ff16612b895760405162461bcd60e51b8152600401610c9690614647565b6099546001600160a01b0316331480612ba0575060005b612bbc5760405162461bcd60e51b8152600401610c96906147fb565b8060aa541415612bde5760405162461bcd60e51b8152600401610c9690614832565b8060aa5410612c475760405162461bcd60e51b815260206004820152602f60248201527f44656372656173696e6720746865206e756d626572206f66207365617473206960448201526e1cc81b9bdd081cdd5c1c1bdc9d1959608a1b6064820152608401610c96565b60aa8190556040518181527ff04f230edf24fbc1578f178b195f97de4640ff7d43b73917ab9809b6dab3f81c90602001612a50565b609954600160a01b900460ff16612ca55760405162461bcd60e51b8152600401610c9690614647565b612cae336137f8565b612cf05760405162461bcd60e51b81526020600482015260136024820152722cb7ba9030b932903737ba103090343ab6b0b760691b6044820152606401610c96565b33600090815260a4602052604090205460ff1615612d465760405162461bcd60e51b8152602060048201526013602482015272165bdd48185c99481b9bdd081d1c9d5cdd1959606a1b6044820152606401610c96565b336000908152609c602052604090205460ff1615612da65760405162461bcd60e51b815260206004820152601960248201527f596f7520617265206120636974697a656e20616c7265616479000000000000006044820152606401610c96565b336000908152609c60205260408120805460ff19166001179055609b805491612dce83614742565b9091555050609b5460405190815233907f85680b0e3c9dff851a268b30da5cb9a6af5580c2340efe13bdf912583304e339906020016122c6565b609954600160a01b900460ff16612e315760405162461bcd60e51b8152600401610c9690614647565b6099546001600160a01b0316331480612e48575060005b612e645760405162461bcd60e51b8152600401610c96906147fb565b8060ab541415612e865760405162461bcd60e51b8152600401610c9690614832565b60ab8190556040518181527f8266a47bd16b534b4b26968777b66de51b41edd05249a296a5ccfaa64473279e90602001612a50565b609954600160a01b900460ff16612ee45760405162461bcd60e51b8152600401610c9690614647565b6099546001600160a01b0316331480612efb575060005b612f175760405162461bcd60e51b8152600401610c96906147fb565b8060a9541415612f395760405162461bcd60e51b8152600401610c9690614832565b60648111158015612f4b575060328110155b612f915760405162461bcd60e51b8152602060048201526017602482015276496e76616c696420706172616d657465722076616c756560481b6044820152606401610c96565b60a98190556040518181527f4eb37c79b03b84aa05374db259983ec05e5a5fc6b607ce1f685cb9b2ac4e680d90602001612a50565b60b354612fd757612fd5613c69565b565b600060af5460b05442612fea91906147ce565b612ff491906149b3565b905060005b60b25481101561309c5760b35460b28281548110613019576130196147e5565b90600052602060002001548361302f91906149b3565b6130399190614708565b60ae600060b18481548110613050576130506147e5565b60009182526020808320909101546001600160a01b031683528201929092526040018120805490919061308490849061472a565b9091555081905061309481614742565b915050612ff9565b506130a5613c69565b6040518181527ff2847f3ce674114228e47b8bf284870a52590383ef331e9266c409e72428a9c290602001612a50565b609954600090600160a01b900460ff166131015760405162461bcd60e51b8152600401610c9690614647565b5060ab54609b54101590565b609954600160a01b900460ff166131365760405162461bcd60e51b8152600401610c9690614647565b6099546001600160a01b031633148061314d575060005b6131695760405162461bcd60e51b8152600401610c96906147fb565b6000613174826137f8565b158061319857506001600160a01b038216600090815260a4602052604090205460ff165b9050806131dc5760405162461bcd60e51b815260206004820152601260248201527110d85b9b9bdd08189948195e1c195b1b195960721b6044820152606401610c96565b6001600160a01b0382166000908152609e602052604090205460ff1615613231576001600160a01b0382166000908152609e60205260408120805460ff19169055609d80549161322b83614a01565b91905055505b6001600160a01b0382166000908152609c602052604090205460ff1615613306576001600160a01b0382166000908152609c60205260408120805460ff19169055609b80549161328083614a01565b90915550506001600160a01b038281166000908152609f60205260409020541615613306576001600160a01b038083166000908152609f6020908152604080832054909316825260a090529081208054916132da83614a01565b90915550506001600160a01b0382166000908152609f6020526040902080546001600160a01b03191690555b6040516001600160a01b038316907fcffc9be37eb8d730dcaec89a70769d1a5e3f16078b232e382b01334241d7bc5e90600090a25050565b609954600160a01b900460ff166133675760405162461bcd60e51b8152600401610c9690614647565b60a65482106133a95760405162461bcd60e51b815260206004820152600e60248201526d15dc9bdb99c81d185b1b1e481a5960921b6044820152606401610c96565b336000908152609c602052604090205460ff166133d85760405162461bcd60e51b8152600401610c96906149d2565b60006133e383610eb9565b905060028160028111156133f9576133f961423b565b141561343e5760405162461bcd60e51b8152602060048201526014602482015273151a19481d9bdd1a5b99c81a185cc8195b99195960621b6044820152606401610c96565b600083815260a86020908152604080832033845290915281205460ff16908361346857600261346b565b60015b905080600281111561347f5761347f61423b565b8260028111156134915761349161423b565b14156134af5760405162461bcd60e51b8152600401610c969061478d565b600085815260a56020526040902060018360028111156134d1576134d161423b565b14156134ef576005810180549060006134e983614a01565b91905055505b60028360028111156135035761350361423b565b14156135215760068101805490600061351b83614a01565b91905055505b60018260028111156135355761353561423b565b14156135535760058101805490600061354d83614742565b91905055505b60028260028111156135675761356761423b565b14156135855760068101805490600061357f83614742565b91905055505b600086815260a8602090815260408083203384529091529020805483919060ff191660018360028111156135bb576135bb61423b565b02179055506040518515158152339087907f02d177e149a23123e2d6a2d371989b409458276a044348405827fb67613814549060200160405180910390a3505050505050565b336000908152609c602052604081205460ff166136305760405162461bcd60e51b8152600401610c96906149d2565b50600090815260a86020908152604080832033845290915290205460ff1690565b613659614111565b60a560008381526020019081526020016000206040518061012001604052908160008201548152602001600182015481526020016002820154815260200160038201548152602001600482015481526020016005820154815260200160068201548152602001600782015481526020016008820160009054906101000a900460ff1660048111156136ec576136ec61423b565b60048111156136fd576136fd61423b565b90525092915050565b6099546001600160a01b031633148061371d575060005b6137395760405162461bcd60e51b8152600401610c96906147fb565b6001600160a01b038116600090815260a4602052604090205460ff16156137ac5760405162461bcd60e51b815260206004820152602160248201527f546865206164647265737320697320616c7265616479206469737472757374656044820152601960fa1b6064820152608401610c96565b6001600160a01b038116600081815260a46020526040808220805460ff19166001179055517f0ee899cf967ef3cb6eab92ab07fa229f4367f970375c7a438774967e6e53d7d19190a250565b609954600090600160a01b900460ff166138245760405162461bcd60e51b8152600401610c9690614647565b609a546001600160a01b0383811691161480610efd575060975460405163c3c5a54760e01b81526001600160a01b0384811660048301529091169063c3c5a54790602401602060405180830381865afa158015613885573d6000803e3d6000fd5b505050506040513d601f19601f82011682018060405250810190610efd9190614996565b6138b78a8a8a8a8a8a613caf565b6001600160a01b03841661390d5760405162461bcd60e51b815260206004820152601d60248201527f46617563657420616464726573732063616e6e6f74206265207a65726f0000006044820152606401610c96565b60ad80546001600160a01b0319166001600160a01b03959095169490941790935560af9190915560b681905560b75560b455505050505050565b600081815260a56020526040812081600882015460ff16600481111561396f5761396f61423b565b148061399357506001600882015460ff1660048111156139915761399161423b565b145b156139a1576139a1836122d0565b6139aa83611b01565b15613a435760006139cc8260030154426139c491906147ce565b60b454613ef2565b6139d7906002614afc565b33600090815260ae60205260408120805492935083929091906139fb90849061472a565b909155505060408051338152602081018390527f13ab2bc1504391cf5fe062fb3970f65be19e32c1b30691999881c0fe87c3483a910160405180910390a15060019392505050565b50600092915050565b7f360894a13ba1a3210667c828492db98dca3e2076cc3735a920a3ca505d382bbc546001600160a01b031690565b6099546001600160a01b0316331480613a91575060005b613aad5760405162461bcd60e51b8152600401610c96906147fb565b6001600160a01b0381166105e85760405162461bcd60e51b815260206004820152603260248201527f4e657720696d706c656d656e746174696f6e20636f6e747261637420616464726044820152716573732063616e6e6f74206265207a65726f60701b6064820152608401610c96565b6000613b28613a4c565b9050613b3384613f08565b600083511180613b405750815b15613b5157613b4f8484613fad565b505b7f4910fdfa16fed3260ed0e7147f7cc6da11a60208b5b9406d12a635614ffd9143805460ff16613c6257805460ff191660011781556040516001600160a01b0383166024820152613bd090869060440160408051601f198184030181529190526020810180516001600160e01b0316631b2ce7f360e11b179052613fad565b50805460ff19168155613be1613a4c565b6001600160a01b0316826001600160a01b031614613c595760405162461bcd60e51b815260206004820152602f60248201527f45524331393637557067726164653a207570677261646520627265616b73206660448201526e75727468657220757067726164657360881b6064820152608401610c96565b613c6285614098565b5050505050565b600080613c74611877565b81519193509150613c8c9060b190602085019061416d565b508051613ca09060b29060208401906141d2565b5050609b5460b355504260b055565b609954600160a01b900460ff1615613d175760405162461bcd60e51b815260206004820152602560248201527f436f6e74726163742068617320616c7265616479206265656e20696e697469616044820152641b1a5e995960da1b6064820152608401610c96565b6001600160a01b038616613d795760405162461bcd60e51b815260206004820152602360248201527f506f4820636f6e747261637420616464726573732063616e6e6f74206265207a60448201526265726f60e81b6064820152608401610c96565b6001600160a01b038516613dcf5760405162461bcd60e51b815260206004820152601c60248201527f4f776e657220616464726573732063616e6e6f74206265207a65726f000000006044820152606401610c96565b6001600160a01b038416613e345760405162461bcd60e51b815260206004820152602660248201527f57616c6c657420636f6e747261637420616464726573732063616e6e6f74206260448201526565207a65726f60d01b6064820152608401610c96565b60008311613e845760405162461bcd60e51b815260206004820152601760248201527f496e76616c6964206e756d626572206f662073656174730000000000000000006044820152606401610c96565b609780546001600160a01b039788166001600160a01b0319918216179091556099805460988054978a1697841697909717909655603260a95560aa9490945560ab9290925560ac55609a8054909116331790556001600160a81b03199091169190921617600160a01b179055565b6000818310613f015781611594565b5090919050565b803b613f6c5760405162461bcd60e51b815260206004820152602d60248201527f455243313936373a206e657720696d706c656d656e746174696f6e206973206e60448201526c1bdd08184818dbdb9d1c9858dd609a1b6064820152608401610c96565b7f360894a13ba1a3210667c828492db98dca3e2076cc3735a920a3ca505d382bbc80546001600160a01b0319166001600160a01b0392909216919091179055565b6060823b61400c5760405162461bcd60e51b815260206004820152602660248201527f416464726573733a2064656c65676174652063616c6c20746f206e6f6e2d636f6044820152651b9d1c9858dd60d21b6064820152608401610c96565b600080846001600160a01b0316846040516140279190614b08565b600060405180830381855af49150503d8060008114614062576040519150601f19603f3d011682016040523d82523d6000602084013e614067565b606091505b509150915061408f8282604051806060016040528060278152602001614b38602791396140d8565b95945050505050565b6140a181613f08565b6040516001600160a01b038216907fbc7cd75a20ee27fd9adebab32041f755214dbc6bffa90cc0225b39da2e5c2d3b90600090a250565b606083156140e7575081611594565b8251156140f75782518084602001fd5b8160405162461bcd60e51b8152600401610c969190614b24565b6040518061012001604052806000815260200160008152602001600081526020016000815260200160008152602001600081526020016000815260200160008152602001600060048111156141685761416861423b565b905290565b8280548282559060005260206000209081019282156141c2579160200282015b828111156141c257825182546001600160a01b0319166001600160a01b0390911617825560209092019160019091019061418d565b506141ce92915061420d565b5090565b8280548282559060005260206000209081019282156141c2579160200282015b828111156141c25782518255916020019190600101906141f2565b5b808211156141ce576000815560010161420e565b60006020828403121561423457600080fd5b5035919050565b634e487b7160e01b600052602160045260246000fd5b600381106105e8576105e861423b565b6020810161426e83614251565b91905290565b80356001600160a01b0381168114610eb457600080fd5b60006020828403121561429d57600080fd5b61159482614274565b600080604083850312156142b957600080fd5b6142c283614274565b946020939093013593505050565b80151581146105e857600080fd5b600080604083850312156142f157600080fd5b823591506020830135614303816142d0565b809150509250929050565b60006020828403121561432057600080fd5b8135611594816142d0565b60008060006060848603121561434057600080fd5b61434984614274565b925061435760208501614274565b9150604084013590509250925092565b600081518084526020808501945080840160005b838110156143a05781516001600160a01b03168752958201959082019060010161437b565b509495945050505050565b6040815260006143be6040830185614367565b82810360208481019190915284518083528582019282019060005b818110156143f5578451835293830193918301916001016143d9565b5090979650505050505050565b634e487b7160e01b600052604160045260246000fd5b6000806040838503121561442b57600080fd5b61443483614274565b9150602083013567ffffffffffffffff8082111561445157600080fd5b818501915085601f83011261446557600080fd5b81358181111561447757614477614402565b604051601f8201601f19908116603f0116810190838211818310171561449f5761449f614402565b816040528281528860208487010111156144b857600080fd5b8260208601602083013760006020848301015280955050505050509250929050565b600080604083850312156144ed57600080fd5b50508035926020909101359150565b6020815260006115946020830184614367565b6000806040838503121561452257600080fd5b61452b83614274565b915061453960208401614274565b90509250929050565b600061012082019050825182526020830151602083015260408301516040830152606083015160608301526080830151608083015260a083015160a083015260c083015160c083015260e083015160e083015261010080840151600581106145ac576145ac61423b565b920191909152919050565b6000806000806000806000806000806101408b8d0312156145d757600080fd5b6145e08b614274565b99506145ee60208c01614274565b98506145fc60408c01614274565b975060608b0135965060808b0135955060a08b0135945061461f60c08c01614274565b935060e08b013592506101008b013591506101208b013590509295989b9194979a5092959850565b60208082526025908201527f436f6e747261637420686173206e6f7420796574206265656e20696e697469616040820152641b1a5e995960da1b606082015260800190565b6020808252602d908201527f596f7520617265206e6f74207472757374656420746f20706572666f726d207460408201526c3434b99037b832b930ba34b7b760991b606082015260800190565b6000602082840312156146eb57600080fd5b5051919050565b634e487b7160e01b600052601160045260246000fd5b60008261472557634e487b7160e01b600052601260045260246000fd5b500490565b6000821982111561473d5761473d6146f2565b500190565b6000600019821415614756576147566146f2565b5060010190565b602080825260169082015275596f7520617265206e6f7420612064656c656761746560501b604082015260600190565b60208082526021908201527f5468617420697320796f75722063757272656e7420766f746520616c726561646040820152607960f81b606082015260800190565b6000828210156147e0576147e06146f2565b500390565b634e487b7160e01b600052603260045260246000fd5b6020808252601e908201527f596f7520617265206e6f7420616c6c6f77656420746f20646f20746869730000604082015260600190565b60208082526029908201527f546865206e657720706172616d657465722076616c7565206d75737420626520604082015268191a5999995c995b9d60ba1b606082015260800190565b6020808252602c908201527f46756e6374696f6e206d7573742062652063616c6c6564207468726f7567682060408201526b19195b1959d85d1958d85b1b60a21b606082015260800190565b6020808252602c908201527f46756e6374696f6e206d7573742062652063616c6c6564207468726f7567682060408201526b6163746976652070726f787960a01b606082015260800190565b60005b8381101561492e578181015183820152602001614916565b8381111561493d576000848401525b50505050565b6000815180845261495b816020860160208601614913565b601f01601f19169290920160200192915050565b60018060a01b038416815282602082015260606040820152600061408f6060830184614943565b6000602082840312156149a857600080fd5b8151611594816142d0565b60008160001904831182151516156149cd576149cd6146f2565b500290565b6020808252601590820152742cb7ba9030b932903737ba10309031b4ba34bd32b760591b604082015260600190565b600081614a1057614a106146f2565b506000190190565b600181815b80851115614a53578160001904821115614a3957614a396146f2565b80851615614a4657918102915b93841c9390800290614a1d565b509250929050565b600082614a6a57506001610efd565b81614a7757506000610efd565b8160018114614a8d5760028114614a9757614ab3565b6001915050610efd565b60ff841115614aa857614aa86146f2565b50506001821b610efd565b5060208310610133831016604e8410600b8410161715614ad6575081810a610efd565b614ae08383614a18565b8060001904821115614af457614af46146f2565b029392505050565b60006115948383614a5b565b60008251614b1a818460208701614913565b9190910192915050565b602081526000611594602083018461494356fe416464726573733a206c6f772d6c6576656c2064656c65676174652063616c6c206661696c6564a26469706673582212200980fb287cc6560ea8f43498ddb0cda159db0f371fadd1c610b56911734c111664736f6c634300080b0033",
  "linkReferences": {},
  "deployedLinkReferences": {}
}