{
  "_format": "hh-sol-artifact-1",
  "contractName": "ProofOfHumanityOracle",
  "sourceName": "contracts/ProofOfHumanityOracle.sol",
  "abi": [
    {
      "anonymous": false,
      "inputs": [
        {
          "indexed": false,
          "internalType": "address",
          "name": "previousAdmin",
          "type": "address"
        },
        {
          "indexed": false,
          "internalType": "address",
          "name": "newAdmin",
          "type": "address"
        }
      ],
      "name": "AdminChanged",
      "type": "event"
    },
    {
      "anonymous": false,
      "inputs": [
        {
          "indexed": true,
          "internalType": "address",
          "name": "beacon",
          "type": "address"
        }
      ],
      "name": "BeaconUpgraded",
      "type": "event"
    },
    {
      "anonymous": false,
      "inputs": [],
      "name": "Update",
      "type": "event"
    },
    {
      "anonymous": false,
      "inputs": [
        {
          "indexed": true,
          "internalType": "address",
          "name": "implementation",
          "type": "address"
        }
      ],
      "name": "Upgraded",
      "type": "event"
    },
    {
      "inputs": [
        {
          "internalType": "address",
          "name": "_address",
          "type": "address"
        }
      ],
      "name": "deregisterHuman",
      "outputs": [],
      "stateMutability": "nonpayable",
      "type": "function"
    },
    {
      "inputs": [
        {
          "internalType": "address[]",
          "name": "_addresses",
          "type": "address[]"
        }
      ],
      "name": "deregisterHumans",
      "outputs": [],
      "stateMutability": "nonpayable",
      "type": "function"
    },
    {
      "inputs": [],
      "name": "humanCount",
      "outputs": [
        {
          "internalType": "uint256",
          "name": "",
          "type": "uint256"
        }
      ],
      "stateMutability": "view",
      "type": "function"
    },
    {
      "inputs": [
        {
          "internalType": "address",
          "name": "_updater",
          "type": "address"
        },
        {
          "internalType": "address",
          "name": "_upgrader",
          "type": "address"
        }
      ],
      "name": "initialize",
      "outputs": [],
      "stateMutability": "nonpayable",
      "type": "function"
    },
    {
      "inputs": [],
      "name": "initialized",
      "outputs": [
        {
          "internalType": "bool",
          "name": "",
          "type": "bool"
        }
      ],
      "stateMutability": "view",
      "type": "function"
    },
    {
      "inputs": [
        {
          "internalType": "address",
          "name": "_address",
          "type": "address"
        }
      ],
      "name": "isRegistered",
      "outputs": [
        {
          "internalType": "bool",
          "name": "",
          "type": "bool"
        }
      ],
      "stateMutability": "view",
      "type": "function"
    },
    {
      "inputs": [
        {
          "internalType": "address",
          "name": "",
          "type": "address"
        }
      ],
      "name": "isRegisteredHuman",
      "outputs": [
        {
          "internalType": "bool",
          "name": "",
          "type": "bool"
        }
      ],
      "stateMutability": "view",
      "type": "function"
    },
    {
      "inputs": [
        {
          "internalType": "address",
          "name": "_address",
          "type": "address"
        }
      ],
      "name": "registerHuman",
      "outputs": [],
      "stateMutability": "nonpayable",
      "type": "function"
    },
    {
      "inputs": [
        {
          "internalType": "address[]",
          "name": "_addresses",
          "type": "address[]"
        }
      ],
      "name": "registerHumans",
      "outputs": [],
      "stateMutability": "nonpayable",
      "type": "function"
    },
    {
      "inputs": [
        {
          "internalType": "uint256",
          "name": "_submissionCount",
          "type": "uint256"
        }
      ],
      "name": "setSubmissionCounter",
      "outputs": [],
      "stateMutability": "nonpayable",
      "type": "function"
    },
    {
      "inputs": [
        {
          "internalType": "address",
          "name": "_updater",
          "type": "address"
        }
      ],
      "name": "setUpdater",
      "outputs": [],
      "stateMutability": "nonpayable",
      "type": "function"
    },
    {
      "inputs": [],
      "name": "submissionCount",
      "outputs": [
        {
          "internalType": "uint256",
          "name": "",
          "type": "uint256"
        }
      ],
      "stateMutability": "view",
      "type": "function"
    },
    {
      "inputs": [],
      "name": "submissionCounter",
      "outputs": [
        {
          "internalType": "uint256",
          "name": "",
          "type": "uint256"
        }
      ],
      "stateMutability": "view",
      "type": "function"
    },
    {
      "inputs": [],
      "name": "updater",
      "outputs": [
        {
          "internalType": "address",
          "name": "",
          "type": "address"
        }
      ],
      "stateMutability": "view",
      "type": "function"
    },
    {
      "inputs": [
        {
          "internalType": "address",
          "name": "newImplementation",
          "type": "address"
        }
      ],
      "name": "upgradeTo",
      "outputs": [],
      "stateMutability": "nonpayable",
      "type": "function"
    },
    {
      "inputs": [
        {
          "internalType": "address",
          "name": "newImplementation",
          "type": "address"
        },
        {
          "internalType": "bytes",
          "name": "data",
          "type": "bytes"
        }
      ],
      "name": "upgradeToAndCall",
      "outputs": [],
      "stateMutability": "payable",
      "type": "function"
    },
    {
      "inputs": [],
      "name": "upgrader",
      "outputs": [
        {
          "internalType": "address",
          "name": "",
          "type": "address"
        }
      ],
      "stateMutability": "view",
      "type": "function"
    }
  ],
  "bytecode": "0x60a06040523060805234801561001457600080fd5b5060805161148161004560003960008181610369015281816103b20152818161068601526106c601526114816000f3fe6080604052600436106100fe5760003560e01c80636ec02be911610095578063af26974511610064578063af26974514610297578063b54bc8ea146102cf578063c3c5a547146102ef578063cad07a0614610328578063df034cd01461033e57600080fd5b80636ec02be91461021e57806376c23ff1146102425780639d54f41914610257578063a68c8bee1461027757600080fd5b8063485cc955116100d1578063485cc955146101ab5780634f1ef286146101cb5780635b79bed8146101de57806360872622146101fe57600080fd5b8063158ef93e14610103578063236e1e3f146101395780633659cfe614610169578063395e2a641461018b575b600080fd5b34801561010f57600080fd5b5060695461012490600160a01b900460ff1681565b60405190151581526020015b60405180910390f35b34801561014557600080fd5b50610124610154366004611003565b60656020526000908152604090205460ff1681565b34801561017557600080fd5b50610189610184366004611003565b61035e565b005b34801561019757600080fd5b506101896101a636600461101e565b610430565b3480156101b757600080fd5b506101896101c6366004611037565b61052c565b6101896101d93660046110b1565b61067b565b3480156101ea57600080fd5b506101896101f9366004611003565b610735565b34801561020a57600080fd5b50610189610219366004611003565b6107fb565b34801561022a57600080fd5b5061023460665481565b604051908152602001610130565b34801561024e57600080fd5b50606654610234565b34801561026357600080fd5b50610189610272366004611003565b610893565b34801561028357600080fd5b50610189610292366004611157565b6109cd565b3480156102a357600080fd5b506069546102b7906001600160a01b031681565b6040516001600160a01b039091168152602001610130565b3480156102db57600080fd5b506101896102ea366004611157565b610ab0565b3480156102fb57600080fd5b5061012461030a366004611003565b6001600160a01b031660009081526065602052604090205460ff1690565b34801561033457600080fd5b5061023460675481565b34801561034a57600080fd5b506068546102b7906001600160a01b031681565b306001600160a01b037f00000000000000000000000000000000000000000000000000000000000000001614156103b05760405162461bcd60e51b81526004016103a790611204565b60405180910390fd5b7f00000000000000000000000000000000000000000000000000000000000000006001600160a01b03166103e2610b93565b6001600160a01b0316146104085760405162461bcd60e51b81526004016103a790611250565b61041181610bc1565b6040805160008082526020820190925261042d91839190610c8c565b50565b606954600160a01b900460ff166104595760405162461bcd60e51b81526004016103a79061129c565b6068546001600160a01b031633148061047b57506068546001600160a01b0316155b6104975760405162461bcd60e51b81526004016103a7906112e1565b8060665414156104fb5760405162461bcd60e51b815260206004820152602960248201527f546865206e657720706172616d657465722076616c7565206d75737420626520604482015268191a5999995c995b9d60ba1b60648201526084016103a7565b60668190556040517faf4b7f14ff7b184584f6408e09001210fcbf5a6b2884e40b2f25711a74772a1090600090a150565b606954600160a01b900460ff16156105945760405162461bcd60e51b815260206004820152602560248201527f436f6e74726163742068617320616c7265616479206265656e20696e697469616044820152641b1a5e995960da1b60648201526084016103a7565b6001600160a01b0382166105ea5760405162461bcd60e51b815260206004820152601e60248201527f5570646174657220616464726573732063616e6e6f74206265207a65726f000060448201526064016103a7565b6001600160a01b0381166106405760405162461bcd60e51b815260206004820152601f60248201527f557067726164657220616464726573732063616e6e6f74206265207a65726f0060448201526064016103a7565b606880546001600160a01b039384166001600160a01b0319909116179055606980546001600160a81b0319169190921617600160a01b179055565b306001600160a01b037f00000000000000000000000000000000000000000000000000000000000000001614156106c45760405162461bcd60e51b81526004016103a790611204565b7f00000000000000000000000000000000000000000000000000000000000000006001600160a01b03166106f6610b93565b6001600160a01b03161461071c5760405162461bcd60e51b81526004016103a790611250565b61072582610bc1565b61073182826001610c8c565b5050565b606954600160a01b900460ff1661075e5760405162461bcd60e51b81526004016103a79061129c565b6068546001600160a01b031633148061078057506068546001600160a01b0316155b61079c5760405162461bcd60e51b81526004016103a7906112e1565b6001600160a01b0381166000908152606560205260408120805460ff1916905560678054916107ca8361132e565b90915550506040517faf4b7f14ff7b184584f6408e09001210fcbf5a6b2884e40b2f25711a74772a1090600090a150565b606954600160a01b900460ff166108245760405162461bcd60e51b81526004016103a79061129c565b6068546001600160a01b031633148061084657506068546001600160a01b0316155b6108625760405162461bcd60e51b81526004016103a7906112e1565b6001600160a01b0381166000908152606560205260408120805460ff1916600117905560678054916107ca83611345565b6068546001600160a01b03163314806108b557506068546001600160a01b0316155b6108d15760405162461bcd60e51b81526004016103a7906112e1565b6001600160a01b0381166109275760405162461bcd60e51b815260206004820152601e60248201527f5570646174657220616464726573732063616e6e6f74206265207a65726f000060448201526064016103a7565b6068546001600160a01b03828116911614156109ab5760405162461bcd60e51b815260206004820152603e60248201527f4e6577207570646174657220616464726573732063616e6e6f7420626520657160448201527f75616c20746f2063757272656e7420757064617465722061646472657373000060648201526084016103a7565b606880546001600160a01b0319166001600160a01b0392909216919091179055565b606954600160a01b900460ff166109f65760405162461bcd60e51b81526004016103a79061129c565b6068546001600160a01b0316331480610a1857506068546001600160a01b0316155b610a345760405162461bcd60e51b81526004016103a7906112e1565b60005b8151811015610a9c57600160656000848481518110610a5857610a58611360565b6020908102919091018101516001600160a01b03168252810191909152604001600020805460ff191691151591909117905580610a9481611345565b915050610a37565b508051606760008282546107ca9190611376565b606954600160a01b900460ff16610ad95760405162461bcd60e51b81526004016103a79061129c565b6068546001600160a01b0316331480610afb57506068546001600160a01b0316155b610b175760405162461bcd60e51b81526004016103a7906112e1565b60005b8151811015610b7f57600060656000848481518110610b3b57610b3b611360565b6020908102919091018101516001600160a01b03168252810191909152604001600020805460ff191691151591909117905580610b7781611345565b915050610b1a565b508051606760008282546107ca919061138e565b7f360894a13ba1a3210667c828492db98dca3e2076cc3735a920a3ca505d382bbc546001600160a01b031690565b6069546001600160a01b03163314610c1b5760405162461bcd60e51b815260206004820152601860248201527f596f7520617265206e6f7420746865207570677261646572000000000000000060448201526064016103a7565b6001600160a01b03811661042d5760405162461bcd60e51b815260206004820152603260248201527f4e657720696d706c656d656e746174696f6e20636f6e747261637420616464726044820152716573732063616e6e6f74206265207a65726f60701b60648201526084016103a7565b6000610c96610b93565b9050610ca184610dd7565b600083511180610cae5750815b15610cbf57610cbd8484610e7c565b505b7f4910fdfa16fed3260ed0e7147f7cc6da11a60208b5b9406d12a635614ffd9143805460ff16610dd057805460ff191660011781556040516001600160a01b0383166024820152610d3e90869060440160408051601f198184030181529190526020810180516001600160e01b0316631b2ce7f360e11b179052610e7c565b50805460ff19168155610d4f610b93565b6001600160a01b0316826001600160a01b031614610dc75760405162461bcd60e51b815260206004820152602f60248201527f45524331393637557067726164653a207570677261646520627265616b73206660448201526e75727468657220757067726164657360881b60648201526084016103a7565b610dd085610f67565b5050505050565b803b610e3b5760405162461bcd60e51b815260206004820152602d60248201527f455243313936373a206e657720696d706c656d656e746174696f6e206973206e60448201526c1bdd08184818dbdb9d1c9858dd609a1b60648201526084016103a7565b7f360894a13ba1a3210667c828492db98dca3e2076cc3735a920a3ca505d382bbc80546001600160a01b0319166001600160a01b0392909216919091179055565b6060823b610edb5760405162461bcd60e51b815260206004820152602660248201527f416464726573733a2064656c65676174652063616c6c20746f206e6f6e2d636f6044820152651b9d1c9858dd60d21b60648201526084016103a7565b600080846001600160a01b031684604051610ef691906113d5565b600060405180830381855af49150503d8060008114610f31576040519150601f19603f3d011682016040523d82523d6000602084013e610f36565b606091505b5091509150610f5e828260405180606001604052806027815260200161142560279139610fa7565b95945050505050565b610f7081610dd7565b6040516001600160a01b038216907fbc7cd75a20ee27fd9adebab32041f755214dbc6bffa90cc0225b39da2e5c2d3b90600090a250565b60608315610fb6575081610fe0565b825115610fc65782518084602001fd5b8160405162461bcd60e51b81526004016103a791906113f1565b9392505050565b80356001600160a01b0381168114610ffe57600080fd5b919050565b60006020828403121561101557600080fd5b610fe082610fe7565b60006020828403121561103057600080fd5b5035919050565b6000806040838503121561104a57600080fd5b61105383610fe7565b915061106160208401610fe7565b90509250929050565b634e487b7160e01b600052604160045260246000fd5b604051601f8201601f1916810167ffffffffffffffff811182821017156110a9576110a961106a565b604052919050565b600080604083850312156110c457600080fd5b6110cd83610fe7565b915060208084013567ffffffffffffffff808211156110eb57600080fd5b818601915086601f8301126110ff57600080fd5b8135818111156111115761111161106a565b611123601f8201601f19168501611080565b9150808252878482850101111561113957600080fd5b80848401858401376000848284010152508093505050509250929050565b6000602080838503121561116a57600080fd5b823567ffffffffffffffff8082111561118257600080fd5b818501915085601f83011261119657600080fd5b8135818111156111a8576111a861106a565b8060051b91506111b9848301611080565b81815291830184019184810190888411156111d357600080fd5b938501935b838510156111f8576111e985610fe7565b825293850193908501906111d8565b98975050505050505050565b6020808252602c908201527f46756e6374696f6e206d7573742062652063616c6c6564207468726f7567682060408201526b19195b1959d85d1958d85b1b60a21b606082015260800190565b6020808252602c908201527f46756e6374696f6e206d7573742062652063616c6c6564207468726f7567682060408201526b6163746976652070726f787960a01b606082015260800190565b60208082526025908201527f436f6e747261637420686173206e6f7420796574206265656e20696e697469616040820152641b1a5e995960da1b606082015260800190565b60208082526017908201527f596f7520617265206e6f74207468652075706461746572000000000000000000604082015260600190565b634e487b7160e01b600052601160045260246000fd5b60008161133d5761133d611318565b506000190190565b600060001982141561135957611359611318565b5060010190565b634e487b7160e01b600052603260045260246000fd5b6000821982111561138957611389611318565b500190565b6000828210156113a0576113a0611318565b500390565b60005b838110156113c05781810151838201526020016113a8565b838111156113cf576000848401525b50505050565b600082516113e78184602087016113a5565b9190910192915050565b60208152600082518060208401526114108160408501602087016113a5565b601f01601f1916919091016040019291505056fe416464726573733a206c6f772d6c6576656c2064656c65676174652063616c6c206661696c6564a264697066735822122035dd5358bcc43e362793e97fc297953aacd489954fde8ee2683669cdb20fdae564736f6c634300080b0033",
  "linkReferences": {},
  "deployedLinkReferences": {}
}