{
  "_format": "hh-sol-artifact-1",
  "contractName": "Wallet",
  "sourceName": "contracts/Wallet.sol",
  "abi": [
    {
      "anonymous": false,
      "inputs": [
        {
          "indexed": false,
          "internalType": "address",
          "name": "previousAdmin",
          "type": "address"
        },
        {
          "indexed": false,
          "internalType": "address",
          "name": "newAdmin",
          "type": "address"
        }
      ],
      "name": "AdminChanged",
      "type": "event"
    },
    {
      "anonymous": false,
      "inputs": [
        {
          "indexed": true,
          "internalType": "address",
          "name": "beacon",
          "type": "address"
        }
      ],
      "name": "BeaconUpgraded",
      "type": "event"
    },
    {
      "anonymous": false,
      "inputs": [
        {
          "indexed": true,
          "internalType": "bool",
          "name": "result",
          "type": "bool"
        },
        {
          "indexed": true,
          "internalType": "bytes",
          "name": "resultMem",
          "type": "bytes"
        }
      ],
      "name": "Called",
      "type": "event"
    },
    {
      "anonymous": false,
      "inputs": [
        {
          "indexed": true,
          "internalType": "address",
          "name": "sender",
          "type": "address"
        },
        {
          "indexed": false,
          "internalType": "uint256",
          "name": "value",
          "type": "uint256"
        }
      ],
      "name": "Deposited",
      "type": "event"
    },
    {
      "anonymous": false,
      "inputs": [
        {
          "indexed": true,
          "internalType": "uint256",
          "name": "proposalId",
          "type": "uint256"
        }
      ],
      "name": "Executed",
      "type": "event"
    },
    {
      "anonymous": false,
      "inputs": [
        {
          "indexed": true,
          "internalType": "uint256",
          "name": "proposalId",
          "type": "uint256"
        }
      ],
      "name": "ExecutedFail",
      "type": "event"
    },
    {
      "anonymous": false,
      "inputs": [
        {
          "indexed": true,
          "internalType": "uint256",
          "name": "proposalId",
          "type": "uint256"
        }
      ],
      "name": "Submitted",
      "type": "event"
    },
    {
      "anonymous": false,
      "inputs": [
        {
          "indexed": true,
          "internalType": "address",
          "name": "implementation",
          "type": "address"
        }
      ],
      "name": "Upgraded",
      "type": "event"
    },
    {
      "stateMutability": "payable",
      "type": "fallback"
    },
    {
      "inputs": [],
      "name": "assemblyContract",
      "outputs": [
        {
          "internalType": "contract IAssemblyCore",
          "name": "",
          "type": "address"
        }
      ],
      "stateMutability": "view",
      "type": "function"
    },
    {
      "inputs": [
        {
          "internalType": "uint256",
          "name": "_proposalId",
          "type": "uint256"
        }
      ],
      "name": "executeProposal",
      "outputs": [
        {
          "internalType": "bool",
          "name": "",
          "type": "bool"
        }
      ],
      "stateMutability": "nonpayable",
      "type": "function"
    },
    {
      "inputs": [
        {
          "internalType": "uint256",
          "name": "_id",
          "type": "uint256"
        }
      ],
      "name": "getProposal",
      "outputs": [
        {
          "components": [
            {
              "internalType": "address",
              "name": "destination",
              "type": "address"
            },
            {
              "internalType": "uint256",
              "name": "value",
              "type": "uint256"
            },
            {
              "internalType": "bytes",
              "name": "data",
              "type": "bytes"
            },
            {
              "internalType": "bool",
              "name": "executed",
              "type": "bool"
            }
          ],
          "internalType": "struct Wallet.Proposal",
          "name": "",
          "type": "tuple"
        }
      ],
      "stateMutability": "view",
      "type": "function"
    },
    {
      "inputs": [],
      "name": "getProposalCount",
      "outputs": [
        {
          "internalType": "uint256",
          "name": "",
          "type": "uint256"
        }
      ],
      "stateMutability": "view",
      "type": "function"
    },
    {
      "inputs": [
        {
          "internalType": "address",
          "name": "_assembly",
          "type": "address"
        }
      ],
      "name": "initialize",
      "outputs": [],
      "stateMutability": "nonpayable",
      "type": "function"
    },
    {
      "inputs": [],
      "name": "initialized",
      "outputs": [
        {
          "internalType": "bool",
          "name": "",
          "type": "bool"
        }
      ],
      "stateMutability": "view",
      "type": "function"
    },
    {
      "inputs": [],
      "name": "isTestMode",
      "outputs": [
        {
          "internalType": "bool",
          "name": "",
          "type": "bool"
        }
      ],
      "stateMutability": "view",
      "type": "function"
    },
    {
      "inputs": [],
      "name": "proposalCount",
      "outputs": [
        {
          "internalType": "uint256",
          "name": "",
          "type": "uint256"
        }
      ],
      "stateMutability": "view",
      "type": "function"
    },
    {
      "inputs": [
        {
          "internalType": "uint256",
          "name": "",
          "type": "uint256"
        }
      ],
      "name": "proposals",
      "outputs": [
        {
          "internalType": "address",
          "name": "destination",
          "type": "address"
        },
        {
          "internalType": "uint256",
          "name": "value",
          "type": "uint256"
        },
        {
          "internalType": "bytes",
          "name": "data",
          "type": "bytes"
        },
        {
          "internalType": "bool",
          "name": "executed",
          "type": "bool"
        }
      ],
      "stateMutability": "view",
      "type": "function"
    },
    {
      "inputs": [
        {
          "internalType": "bool",
          "name": "_testMode",
          "type": "bool"
        }
      ],
      "name": "setTestMode",
      "outputs": [],
      "stateMutability": "nonpayable",
      "type": "function"
    },
    {
      "inputs": [
        {
          "internalType": "address",
          "name": "_destination",
          "type": "address"
        },
        {
          "internalType": "uint256",
          "name": "_value",
          "type": "uint256"
        },
        {
          "internalType": "bytes",
          "name": "_data",
          "type": "bytes"
        }
      ],
      "name": "submitProposal",
      "outputs": [
        {
          "internalType": "uint256",
          "name": "",
          "type": "uint256"
        }
      ],
      "stateMutability": "nonpayable",
      "type": "function"
    },
    {
      "inputs": [
        {
          "internalType": "address",
          "name": "newImplementation",
          "type": "address"
        }
      ],
      "name": "upgradeTo",
      "outputs": [],
      "stateMutability": "nonpayable",
      "type": "function"
    },
    {
      "inputs": [
        {
          "internalType": "address",
          "name": "newImplementation",
          "type": "address"
        },
        {
          "internalType": "bytes",
          "name": "data",
          "type": "bytes"
        }
      ],
      "name": "upgradeToAndCall",
      "outputs": [],
      "stateMutability": "payable",
      "type": "function"
    }
  ],
  "bytecode": "0x60a06040523060805234801561001457600080fd5b5060805161166f61004560003960008181610878015281816108b80152818161093e015261097e015261166f6000f3fe6080604052600436106100c25760003560e01c80634f1ef2861161007f578063c4d66de811610059578063c4d66de814610232578063c7f758a814610252578063da35c6641461027f578063f135f6e914610295576100c2565b80634f1ef286146101f657806360efe48c14610209578063c08cc02d1461021d576100c2565b8063013cf08b146101005780630d61b5191461013957806311d0301514610169578063158ef93e146101975780631ff1292f146101b85780633659cfe6146101d6575b34156100fe5760405134815233907f2da466a7b24304f47e87fa2e1e5a81b9831ce54fec19055ce277ca2f39ba42c49060200160405180910390a25b005b34801561010c57600080fd5b5061012061011b3660046111e5565b6102cd565b604051610130949392919061125a565b60405180910390f35b34801561014557600080fd5b506101596101543660046111e5565b61038b565b6040519015158152602001610130565b34801561017557600080fd5b50610189610184366004611353565b610698565b604051908152602001610130565b3480156101a357600080fd5b5060975461015990600160a01b900460ff1681565b3480156101c457600080fd5b506100fe6101d33660046113b8565b50565b3480156101e257600080fd5b506100fe6101f13660046113d5565b61086d565b6100fe6102043660046113f0565b610933565b34801561021557600080fd5b506000610159565b34801561022957600080fd5b50609854610189565b34801561023e57600080fd5b506100fe61024d3660046113d5565b6109ed565b34801561025e57600080fd5b5061027261026d3660046111e5565b610ae3565b604051610130919061143e565b34801561028b57600080fd5b5061018960985481565b3480156102a157600080fd5b506097546102b5906001600160a01b031681565b6040516001600160a01b039091168152602001610130565b6099602052600090815260409020805460018201546002830180546001600160a01b039093169391926102ff9061148e565b80601f016020809104026020016040519081016040528092919081815260200182805461032b9061148e565b80156103785780601f1061034d57610100808354040283529160200191610378565b820191906000526020600020905b81548152906001019060200180831161035b57829003601f168201915b5050506003909301549192505060ff1684565b6097546000906001600160a01b03166103bf5760405162461bcd60e51b81526004016103b6906114c3565b60405180910390fd5b6097546001600160a01b0316331461042e5760405162461bcd60e51b815260206004820152602c60248201527f4f6e6c792074686520417373656d626c792063616e20706572666f726d20746860448201526b34b99037b832b930ba34b7b760a11b60648201526084016103b6565b60008281526099602052604090205482906001600160a01b03166104885760405162461bcd60e51b815260206004820152601160248201527015dc9bdb99c81c1c9bdc1bdcd85b081a59607a1b60448201526064016103b6565b600083815260996020526040902060030154839060ff16156104fe5760405162461bcd60e51b815260206004820152602960248201527f50726f706f736564207472616e73616374696f6e2077617320616c726561647960448201526808195e1958dd5d195960ba1b60648201526084016103b6565b600260655414156105515760405162461bcd60e51b815260206004820152601f60248201527f5265656e7472616e637947756172643a207265656e7472616e742063616c6c0060448201526064016103b6565b6002606581905560008581526099602052604090208054600182015492820180549293610613936001600160a01b03909316929091906105909061148e565b80601f01602080910402602001604051908101604052809291908181526020018280546105bc9061148e565b80156106095780601f106105de57610100808354040283529160200191610609565b820191906000526020600020905b8154815290600101906020018083116105ec57829003601f168201915b5050505050610c59565b1561065b5760405185907fbcf6a68a2f901be4a23a41b53acd7697893a7e34def4e28acba584da75283b6790600090a2600301805460ff19166001908117909155925061068c565b60405185907fd10b311ce801006962fc4978744e06eeaa2bd02c9325c756a095fa993ada9c7790600090a260009350505b50506001606555919050565b6097546000906001600160a01b03166106c35760405162461bcd60e51b81526004016103b6906114c3565b6097546040516396d6487960e01b81523360048201526001600160a01b03909116906396d6487990602401602060405180830381865afa15801561070b573d6000803e3d6000fd5b505050506040513d601f19601f8201168201806040525081019061072f9190611508565b6107915760405162461bcd60e51b815260206004820152602d60248201527f596f7520617265206e6f74207472757374656420746f20706572666f726d207460448201526c3434b99037b832b930ba34b7b760991b60648201526084016103b6565b609854604080516080810182526001600160a01b03878116825260208083018881528385018881526000606086018190528781526099845295909520845181546001600160a01b03191694169390931783555160018301559251805192939192610801926002850192019061114c565b50606091909101516003909101805460ff19169115159190911790556098805460019190600090610833908490611525565b909155505060405181907f12221729cf43d16e11d9c183a2f7967bff446869423750e0b33bd13a597be6dd90600090a290505b9392505050565b306001600160a01b037f00000000000000000000000000000000000000000000000000000000000000001614156108b65760405162461bcd60e51b81526004016103b69061154b565b7f00000000000000000000000000000000000000000000000000000000000000006001600160a01b03166108e8610d0a565b6001600160a01b03161461090e5760405162461bcd60e51b81526004016103b690611597565b61091781610d38565b604080516000808252602082019092526101d391839190610df8565b306001600160a01b037f000000000000000000000000000000000000000000000000000000000000000016141561097c5760405162461bcd60e51b81526004016103b69061154b565b7f00000000000000000000000000000000000000000000000000000000000000006001600160a01b03166109ae610d0a565b6001600160a01b0316146109d45760405162461bcd60e51b81526004016103b690611597565b6109dd82610d38565b6109e982826001610df8565b5050565b609754600160a01b900460ff1615610a555760405162461bcd60e51b815260206004820152602560248201527f436f6e74726163742068617320616c7265616479206265656e20696e697469616044820152641b1a5e995960da1b60648201526084016103b6565b6001600160a01b038116610abc5760405162461bcd60e51b815260206004820152602860248201527f417373656d626c7920636f6e747261637420616464726573732063616e6e6f74604482015267206265207a65726f60c01b60648201526084016103b6565b609780546001600160a81b0319166001600160a01b0390921691909117600160a01b179055565b610b19604051806080016040528060006001600160a01b0316815260200160008152602001606081526020016000151581525090565b60008281526099602052604090205482906001600160a01b0316610b735760405162461bcd60e51b815260206004820152601160248201527015dc9bdb99c81c1c9bdc1bdcd85b081a59607a1b60448201526064016103b6565b600083815260996020908152604091829020825160808101845281546001600160a01b031681526001820154928101929092526002810180549293919291840191610bbd9061148e565b80601f0160208091040260200160405190810160405280929190818152602001828054610be99061148e565b8015610c365780601f10610c0b57610100808354040283529160200191610c36565b820191906000526020600020905b815481529060010190602001808311610c1957829003601f168201915b50505091835250506003919091015460ff16151560209091015291505b50919050565b6000806060856001600160a01b03168585604051610c7791906115e3565b60006040518083038185875af1925050503d8060008114610cb4576040519150601f19603f3d011682016040523d82523d6000602084013e610cb9565b606091505b506040519193509150610ccd9082906115e3565b60405190819003812090831515907f85cbacf8f422a541772e13127e76d92356b61818e21495c252b257429f3f438c90600090a350949350505050565b7f360894a13ba1a3210667c828492db98dca3e2076cc3735a920a3ca505d382bbc546001600160a01b031690565b333014610d875760405162461bcd60e51b815260206004820152601e60248201527f596f7520617265206e6f7420616c6c6f77656420746f20646f2074686973000060448201526064016103b6565b6001600160a01b0381166101d35760405162461bcd60e51b815260206004820152603260248201527f4e657720696d706c656d656e746174696f6e20636f6e747261637420616464726044820152716573732063616e6e6f74206265207a65726f60701b60648201526084016103b6565b6000610e02610d0a565b9050610e0d84610f43565b600083511180610e1a5750815b15610e2b57610e298484610fe8565b505b7f4910fdfa16fed3260ed0e7147f7cc6da11a60208b5b9406d12a635614ffd9143805460ff16610f3c57805460ff191660011781556040516001600160a01b0383166024820152610eaa90869060440160408051601f198184030181529190526020810180516001600160e01b0316631b2ce7f360e11b179052610fe8565b50805460ff19168155610ebb610d0a565b6001600160a01b0316826001600160a01b031614610f335760405162461bcd60e51b815260206004820152602f60248201527f45524331393637557067726164653a207570677261646520627265616b73206660448201526e75727468657220757067726164657360881b60648201526084016103b6565b610f3c856110d3565b5050505050565b803b610fa75760405162461bcd60e51b815260206004820152602d60248201527f455243313936373a206e657720696d706c656d656e746174696f6e206973206e60448201526c1bdd08184818dbdb9d1c9858dd609a1b60648201526084016103b6565b7f360894a13ba1a3210667c828492db98dca3e2076cc3735a920a3ca505d382bbc80546001600160a01b0319166001600160a01b0392909216919091179055565b6060823b6110475760405162461bcd60e51b815260206004820152602660248201527f416464726573733a2064656c65676174652063616c6c20746f206e6f6e2d636f6044820152651b9d1c9858dd60d21b60648201526084016103b6565b600080846001600160a01b03168460405161106291906115e3565b600060405180830381855af49150503d806000811461109d576040519150601f19603f3d011682016040523d82523d6000602084013e6110a2565b606091505b50915091506110ca828260405180606001604052806027815260200161161360279139611113565b95945050505050565b6110dc81610f43565b6040516001600160a01b038216907fbc7cd75a20ee27fd9adebab32041f755214dbc6bffa90cc0225b39da2e5c2d3b90600090a250565b60608315611122575081610866565b8251156111325782518084602001fd5b8160405162461bcd60e51b81526004016103b691906115ff565b8280546111589061148e565b90600052602060002090601f01602090048101928261117a57600085556111c0565b82601f1061119357805160ff19168380011785556111c0565b828001600101855582156111c0579182015b828111156111c05782518255916020019190600101906111a5565b506111cc9291506111d0565b5090565b5b808211156111cc57600081556001016111d1565b6000602082840312156111f757600080fd5b5035919050565b60005b83811015611219578181015183820152602001611201565b83811115611228576000848401525b50505050565b600081518084526112468160208601602086016111fe565b601f01601f19169290920160200192915050565b60018060a01b0385168152836020820152608060408201526000611281608083018561122e565b9050821515606083015295945050505050565b80356001600160a01b03811681146112ab57600080fd5b919050565b634e487b7160e01b600052604160045260246000fd5b600082601f8301126112d757600080fd5b813567ffffffffffffffff808211156112f2576112f26112b0565b604051601f8301601f19908116603f0116810190828211818310171561131a5761131a6112b0565b8160405283815286602085880101111561133357600080fd5b836020870160208301376000602085830101528094505050505092915050565b60008060006060848603121561136857600080fd5b61137184611294565b925060208401359150604084013567ffffffffffffffff81111561139457600080fd5b6113a0868287016112c6565b9150509250925092565b80151581146101d357600080fd5b6000602082840312156113ca57600080fd5b8135610866816113aa565b6000602082840312156113e757600080fd5b61086682611294565b6000806040838503121561140357600080fd5b61140c83611294565b9150602083013567ffffffffffffffff81111561142857600080fd5b611434858286016112c6565b9150509250929050565b6020815260018060a01b03825116602082015260208201516040820152600060408301516080606084015261147660a084018261122e565b90506060840151151560808401528091505092915050565b600181811c908216806114a257607f821691505b60208210811415610c5357634e487b7160e01b600052602260045260246000fd5b60208082526025908201527f436f6e747261637420686173206e6f7420796574206265656e20696e697469616040820152641b1a5e995960da1b606082015260800190565b60006020828403121561151a57600080fd5b8151610866816113aa565b6000821982111561154657634e487b7160e01b600052601160045260246000fd5b500190565b6020808252602c908201527f46756e6374696f6e206d7573742062652063616c6c6564207468726f7567682060408201526b19195b1959d85d1958d85b1b60a21b606082015260800190565b6020808252602c908201527f46756e6374696f6e206d7573742062652063616c6c6564207468726f7567682060408201526b6163746976652070726f787960a01b606082015260800190565b600082516115f58184602087016111fe565b9190910192915050565b602081526000610866602083018461122e56fe416464726573733a206c6f772d6c6576656c2064656c65676174652063616c6c206661696c6564a2646970667358221220d8123e7a472f87b931869f7816bf77e8f390170ca716ceb2728c30769e9c394764736f6c634300080b0033",
  "linkReferences": {},
  "deployedLinkReferences": {}
}