{
  "_format": "hh-sol-artifact-1",
  "contractName": "Faucet",
  "sourceName": "contracts/Faucet.sol",
  "abi": [
    {
      "anonymous": false,
      "inputs": [
        {
          "indexed": false,
          "internalType": "address",
          "name": "previousAdmin",
          "type": "address"
        },
        {
          "indexed": false,
          "internalType": "address",
          "name": "newAdmin",
          "type": "address"
        }
      ],
      "name": "AdminChanged",
      "type": "event"
    },
    {
      "anonymous": false,
      "inputs": [
        {
          "indexed": true,
          "internalType": "address",
          "name": "beacon",
          "type": "address"
        }
      ],
      "name": "BeaconUpgraded",
      "type": "event"
    },
    {
      "anonymous": false,
      "inputs": [
        {
          "indexed": true,
          "internalType": "address",
          "name": "implementation",
          "type": "address"
        }
      ],
      "name": "Upgraded",
      "type": "event"
    },
    {
      "inputs": [],
      "name": "getAssembly",
      "outputs": [
        {
          "internalType": "address",
          "name": "",
          "type": "address"
        }
      ],
      "stateMutability": "view",
      "type": "function"
    },
    {
      "inputs": [],
      "name": "getToken",
      "outputs": [
        {
          "internalType": "address",
          "name": "",
          "type": "address"
        }
      ],
      "stateMutability": "view",
      "type": "function"
    },
    {
      "inputs": [],
      "name": "getUpgrader",
      "outputs": [
        {
          "internalType": "address",
          "name": "",
          "type": "address"
        }
      ],
      "stateMutability": "view",
      "type": "function"
    },
    {
      "inputs": [],
      "name": "getWallet",
      "outputs": [
        {
          "internalType": "address",
          "name": "",
          "type": "address"
        }
      ],
      "stateMutability": "view",
      "type": "function"
    },
    {
      "inputs": [
        {
          "internalType": "address",
          "name": "assembly_",
          "type": "address"
        },
        {
          "internalType": "address",
          "name": "wallet",
          "type": "address"
        },
        {
          "internalType": "address",
          "name": "token",
          "type": "address"
        },
        {
          "internalType": "address",
          "name": "upgrader",
          "type": "address"
        }
      ],
      "name": "initialize",
      "outputs": [],
      "stateMutability": "nonpayable",
      "type": "function"
    },
    {
      "inputs": [
        {
          "internalType": "address",
          "name": "recipient",
          "type": "address"
        },
        {
          "internalType": "uint256",
          "name": "amount",
          "type": "uint256"
        },
        {
          "internalType": "bytes",
          "name": "data",
          "type": "bytes"
        }
      ],
      "name": "send",
      "outputs": [],
      "stateMutability": "nonpayable",
      "type": "function"
    },
    {
      "inputs": [
        {
          "internalType": "address",
          "name": "newImplementation",
          "type": "address"
        }
      ],
      "name": "upgradeTo",
      "outputs": [],
      "stateMutability": "nonpayable",
      "type": "function"
    },
    {
      "inputs": [
        {
          "internalType": "address",
          "name": "newImplementation",
          "type": "address"
        },
        {
          "internalType": "bytes",
          "name": "data",
          "type": "bytes"
        }
      ],
      "name": "upgradeToAndCall",
      "outputs": [],
      "stateMutability": "payable",
      "type": "function"
    }
  ],
  "bytecode": "0x60a06040523060805234801561001457600080fd5b50608051610e9c61004560003960008181610190015281816101d90152818161026201526102a20152610e9c6000f3fe60806040526004361061007b5760003560e01c80634f1ef2861161004e5780634f1ef286146101145780639bd9bbc614610127578063e4d7437b14610147578063f8c8765e1461016557600080fd5b8063061216521461008057806313299604146100b657806321df0da7146100d45780633659cfe6146100f2575b600080fd5b34801561008c57600080fd5b506066546001600160a01b03165b6040516001600160a01b03909116815260200160405180910390f35b3480156100c257600080fd5b506067546001600160a01b031661009a565b3480156100e057600080fd5b506065546001600160a01b031661009a565b3480156100fe57600080fd5b5061011261010d366004610b12565b610185565b005b610112610122366004610b43565b610257565b34801561013357600080fd5b50610112610142366004610c05565b610311565b34801561015357600080fd5b506068546001600160a01b031661009a565b34801561017157600080fd5b50610112610180366004610c8c565b610455565b306001600160a01b037f00000000000000000000000000000000000000000000000000000000000000001614156101d75760405162461bcd60e51b81526004016101ce90610ce0565b60405180910390fd5b7f00000000000000000000000000000000000000000000000000000000000000006001600160a01b03166102096106a2565b6001600160a01b03161461022f5760405162461bcd60e51b81526004016101ce90610d2c565b610238816106d0565b604080516000808252602082019092526102549183919061079b565b50565b306001600160a01b037f00000000000000000000000000000000000000000000000000000000000000001614156102a05760405162461bcd60e51b81526004016101ce90610ce0565b7f00000000000000000000000000000000000000000000000000000000000000006001600160a01b03166102d26106a2565b6001600160a01b0316146102f85760405162461bcd60e51b81526004016101ce90610d2c565b610301826106d0565b61030d8282600161079b565b5050565b606854600160a01b900460ff166103785760405162461bcd60e51b815260206004820152602560248201527f436f6e747261637420686173206e6f7420796574206265656e20696e697469616044820152641b1a5e995960da1b60648201526084016101ce565b6066546001600160a01b031633148061039b57506067546001600160a01b031633145b6103e75760405162461bcd60e51b815260206004820152601e60248201527f596f7520617265206e6f7420616c6c6f77656420746f20646f2074686973000060448201526064016101ce565b606554604051634decdde360e11b81526001600160a01b0390911690639bd9bbc69061041d908790879087908790600401610d78565b600060405180830381600087803b15801561043757600080fd5b505af115801561044b573d6000803e3d6000fd5b5050505050505050565b606854600160a01b900460ff16156104bd5760405162461bcd60e51b815260206004820152602560248201527f436f6e74726163742068617320616c7265616479206265656e20696e697469616044820152641b1a5e995960da1b60648201526084016101ce565b6001600160a01b0384166105245760405162461bcd60e51b815260206004820152602860248201527f417373656d626c7920636f6e747261637420616464726573732063616e6e6f74604482015267206265207a65726f60c01b60648201526084016101ce565b6001600160a01b0383166105895760405162461bcd60e51b815260206004820152602660248201527f57616c6c657420636f6e747261637420616464726573732063616e6e6f74206260448201526565207a65726f60d01b60648201526084016101ce565b6001600160a01b0382166105ed5760405162461bcd60e51b815260206004820152602560248201527f546f6b656e20636f6e747261637420616464726573732063616e6e6f74206265604482015264207a65726f60d81b60648201526084016101ce565b6001600160a01b0381166106435760405162461bcd60e51b815260206004820152601f60248201527f557067726164657220616464726573732063616e6e6f74206265207a65726f0060448201526064016101ce565b606580546001600160a01b039384166001600160a01b0319918216179091556066805495841695821695909517909455606780549383169390941692909217909255606880546001600160a81b0319169190921617600160a01b179055565b7f360894a13ba1a3210667c828492db98dca3e2076cc3735a920a3ca505d382bbc546001600160a01b031690565b6068546001600160a01b0316331461072a5760405162461bcd60e51b815260206004820152601860248201527f596f7520617265206e6f7420746865207570677261646572000000000000000060448201526064016101ce565b6001600160a01b0381166102545760405162461bcd60e51b815260206004820152603260248201527f4e657720696d706c656d656e746174696f6e20636f6e747261637420616464726044820152716573732063616e6e6f74206265207a65726f60701b60648201526084016101ce565b60006107a56106a2565b90506107b0846108e6565b6000835111806107bd5750815b156107ce576107cc848461098b565b505b7f4910fdfa16fed3260ed0e7147f7cc6da11a60208b5b9406d12a635614ffd9143805460ff166108df57805460ff191660011781556040516001600160a01b038316602482015261084d90869060440160408051601f198184030181529190526020810180516001600160e01b0316631b2ce7f360e11b17905261098b565b50805460ff1916815561085e6106a2565b6001600160a01b0316826001600160a01b0316146108d65760405162461bcd60e51b815260206004820152602f60248201527f45524331393637557067726164653a207570677261646520627265616b73206660448201526e75727468657220757067726164657360881b60648201526084016101ce565b6108df85610a76565b5050505050565b803b61094a5760405162461bcd60e51b815260206004820152602d60248201527f455243313936373a206e657720696d706c656d656e746174696f6e206973206e60448201526c1bdd08184818dbdb9d1c9858dd609a1b60648201526084016101ce565b7f360894a13ba1a3210667c828492db98dca3e2076cc3735a920a3ca505d382bbc80546001600160a01b0319166001600160a01b0392909216919091179055565b6060823b6109ea5760405162461bcd60e51b815260206004820152602660248201527f416464726573733a2064656c65676174652063616c6c20746f206e6f6e2d636f6044820152651b9d1c9858dd60d21b60648201526084016101ce565b600080846001600160a01b031684604051610a059190610df0565b600060405180830381855af49150503d8060008114610a40576040519150601f19603f3d011682016040523d82523d6000602084013e610a45565b606091505b5091509150610a6d8282604051806060016040528060278152602001610e4060279139610ab6565b95945050505050565b610a7f816108e6565b6040516001600160a01b038216907fbc7cd75a20ee27fd9adebab32041f755214dbc6bffa90cc0225b39da2e5c2d3b90600090a250565b60608315610ac5575081610aef565b825115610ad55782518084602001fd5b8160405162461bcd60e51b81526004016101ce9190610e0c565b9392505050565b80356001600160a01b0381168114610b0d57600080fd5b919050565b600060208284031215610b2457600080fd5b610aef82610af6565b634e487b7160e01b600052604160045260246000fd5b60008060408385031215610b5657600080fd5b610b5f83610af6565b9150602083013567ffffffffffffffff80821115610b7c57600080fd5b818501915085601f830112610b9057600080fd5b813581811115610ba257610ba2610b2d565b604051601f8201601f19908116603f01168101908382118183101715610bca57610bca610b2d565b81604052828152886020848701011115610be357600080fd5b8260208601602083013760006020848301015280955050505050509250929050565b60008060008060608587031215610c1b57600080fd5b610c2485610af6565b935060208501359250604085013567ffffffffffffffff80821115610c4857600080fd5b818701915087601f830112610c5c57600080fd5b813581811115610c6b57600080fd5b886020828501011115610c7d57600080fd5b95989497505060200194505050565b60008060008060808587031215610ca257600080fd5b610cab85610af6565b9350610cb960208601610af6565b9250610cc760408601610af6565b9150610cd560608601610af6565b905092959194509250565b6020808252602c908201527f46756e6374696f6e206d7573742062652063616c6c6564207468726f7567682060408201526b19195b1959d85d1958d85b1b60a21b606082015260800190565b6020808252602c908201527f46756e6374696f6e206d7573742062652063616c6c6564207468726f7567682060408201526b6163746976652070726f787960a01b606082015260800190565b6001600160a01b0385168152602081018490526060604082018190528101829052818360808301376000818301608090810191909152601f909201601f191601019392505050565b60005b83811015610ddb578181015183820152602001610dc3565b83811115610dea576000848401525b50505050565b60008251610e02818460208701610dc0565b9190910192915050565b6020815260008251806020840152610e2b816040850160208701610dc0565b601f01601f1916919091016040019291505056fe416464726573733a206c6f772d6c6576656c2064656c65676174652063616c6c206661696c6564a264697066735822122060306049eb997551c93dd0a4d5bdc728c00f7bda945c8614cbe2fe312fdf7e0864736f6c634300080b0033",
  "linkReferences": {},
  "deployedLinkReferences": {}
}