{
  "_format": "hh-sol-artifact-1",
  "contractName": "Token",
  "sourceName": "contracts/Token.sol",
  "abi": [
    {
      "anonymous": false,
      "inputs": [
        {
          "indexed": false,
          "internalType": "address",
          "name": "previousAdmin",
          "type": "address"
        },
        {
          "indexed": false,
          "internalType": "address",
          "name": "newAdmin",
          "type": "address"
        }
      ],
      "name": "AdminChanged",
      "type": "event"
    },
    {
      "anonymous": false,
      "inputs": [
        {
          "indexed": true,
          "internalType": "address",
          "name": "owner",
          "type": "address"
        },
        {
          "indexed": true,
          "internalType": "address",
          "name": "spender",
          "type": "address"
        },
        {
          "indexed": false,
          "internalType": "uint256",
          "name": "value",
          "type": "uint256"
        }
      ],
      "name": "Approval",
      "type": "event"
    },
    {
      "anonymous": false,
      "inputs": [
        {
          "indexed": true,
          "internalType": "address",
          "name": "operator",
          "type": "address"
        },
        {
          "indexed": true,
          "internalType": "address",
          "name": "tokenHolder",
          "type": "address"
        }
      ],
      "name": "AuthorizedOperator",
      "type": "event"
    },
    {
      "anonymous": false,
      "inputs": [
        {
          "indexed": true,
          "internalType": "address",
          "name": "beacon",
          "type": "address"
        }
      ],
      "name": "BeaconUpgraded",
      "type": "event"
    },
    {
      "anonymous": false,
      "inputs": [
        {
          "indexed": true,
          "internalType": "address",
          "name": "account",
          "type": "address"
        }
      ],
      "name": "Blocked",
      "type": "event"
    },
    {
      "anonymous": false,
      "inputs": [
        {
          "indexed": true,
          "internalType": "address",
          "name": "operator",
          "type": "address"
        },
        {
          "indexed": true,
          "internalType": "address",
          "name": "from",
          "type": "address"
        },
        {
          "indexed": false,
          "internalType": "uint256",
          "name": "amount",
          "type": "uint256"
        },
        {
          "indexed": false,
          "internalType": "bytes",
          "name": "data",
          "type": "bytes"
        },
        {
          "indexed": false,
          "internalType": "bytes",
          "name": "operatorData",
          "type": "bytes"
        }
      ],
      "name": "Burned",
      "type": "event"
    },
    {
      "anonymous": false,
      "inputs": [
        {
          "indexed": true,
          "internalType": "address",
          "name": "from",
          "type": "address"
        },
        {
          "indexed": true,
          "internalType": "address",
          "name": "to",
          "type": "address"
        },
        {
          "indexed": false,
          "internalType": "uint256",
          "name": "amount",
          "type": "uint256"
        },
        {
          "indexed": true,
          "internalType": "bytes",
          "name": "userData",
          "type": "bytes"
        }
      ],
      "name": "GovernorSend",
      "type": "event"
    },
    {
      "anonymous": false,
      "inputs": [
        {
          "indexed": true,
          "internalType": "address",
          "name": "operator",
          "type": "address"
        },
        {
          "indexed": true,
          "internalType": "address",
          "name": "to",
          "type": "address"
        },
        {
          "indexed": false,
          "internalType": "uint256",
          "name": "amount",
          "type": "uint256"
        },
        {
          "indexed": false,
          "internalType": "bytes",
          "name": "data",
          "type": "bytes"
        },
        {
          "indexed": false,
          "internalType": "bytes",
          "name": "operatorData",
          "type": "bytes"
        }
      ],
      "name": "Minted",
      "type": "event"
    },
    {
      "anonymous": false,
      "inputs": [
        {
          "indexed": true,
          "internalType": "address",
          "name": "operator",
          "type": "address"
        },
        {
          "indexed": true,
          "internalType": "address",
          "name": "tokenHolder",
          "type": "address"
        }
      ],
      "name": "RevokedOperator",
      "type": "event"
    },
    {
      "anonymous": false,
      "inputs": [
        {
          "indexed": true,
          "internalType": "address",
          "name": "operator",
          "type": "address"
        },
        {
          "indexed": true,
          "internalType": "address",
          "name": "from",
          "type": "address"
        },
        {
          "indexed": true,
          "internalType": "address",
          "name": "to",
          "type": "address"
        },
        {
          "indexed": false,
          "internalType": "uint256",
          "name": "amount",
          "type": "uint256"
        },
        {
          "indexed": false,
          "internalType": "bytes",
          "name": "data",
          "type": "bytes"
        },
        {
          "indexed": false,
          "internalType": "bytes",
          "name": "operatorData",
          "type": "bytes"
        }
      ],
      "name": "Sent",
      "type": "event"
    },
    {
      "anonymous": false,
      "inputs": [
        {
          "indexed": true,
          "internalType": "address",
          "name": "from",
          "type": "address"
        },
        {
          "indexed": true,
          "internalType": "address",
          "name": "to",
          "type": "address"
        },
        {
          "indexed": false,
          "internalType": "uint256",
          "name": "value",
          "type": "uint256"
        }
      ],
      "name": "Transfer",
      "type": "event"
    },
    {
      "anonymous": false,
      "inputs": [
        {
          "indexed": true,
          "internalType": "address",
          "name": "account",
          "type": "address"
        }
      ],
      "name": "Unblocked",
      "type": "event"
    },
    {
      "anonymous": false,
      "inputs": [
        {
          "indexed": true,
          "internalType": "address",
          "name": "implementation",
          "type": "address"
        }
      ],
      "name": "Upgraded",
      "type": "event"
    },
    {
      "inputs": [
        {
          "internalType": "address",
          "name": "holder",
          "type": "address"
        },
        {
          "internalType": "address",
          "name": "spender",
          "type": "address"
        }
      ],
      "name": "allowance",
      "outputs": [
        {
          "internalType": "uint256",
          "name": "",
          "type": "uint256"
        }
      ],
      "stateMutability": "view",
      "type": "function"
    },
    {
      "inputs": [
        {
          "internalType": "address",
          "name": "spender",
          "type": "address"
        },
        {
          "internalType": "uint256",
          "name": "value",
          "type": "uint256"
        }
      ],
      "name": "approve",
      "outputs": [
        {
          "internalType": "bool",
          "name": "",
          "type": "bool"
        }
      ],
      "stateMutability": "nonpayable",
      "type": "function"
    },
    {
      "inputs": [
        {
          "internalType": "address",
          "name": "operator",
          "type": "address"
        }
      ],
      "name": "authorizeOperator",
      "outputs": [],
      "stateMutability": "nonpayable",
      "type": "function"
    },
    {
      "inputs": [
        {
          "internalType": "address",
          "name": "tokenHolder",
          "type": "address"
        }
      ],
      "name": "balanceOf",
      "outputs": [
        {
          "internalType": "uint256",
          "name": "",
          "type": "uint256"
        }
      ],
      "stateMutability": "view",
      "type": "function"
    },
    {
      "inputs": [
        {
          "internalType": "address",
          "name": "account",
          "type": "address"
        }
      ],
      "name": "blockAddress",
      "outputs": [],
      "stateMutability": "nonpayable",
      "type": "function"
    },
    {
      "inputs": [
        {
          "internalType": "uint256",
          "name": "amount",
          "type": "uint256"
        },
        {
          "internalType": "bytes",
          "name": "data",
          "type": "bytes"
        }
      ],
      "name": "burn",
      "outputs": [],
      "stateMutability": "nonpayable",
      "type": "function"
    },
    {
      "inputs": [],
      "name": "decimals",
      "outputs": [
        {
          "internalType": "uint8",
          "name": "",
          "type": "uint8"
        }
      ],
      "stateMutability": "pure",
      "type": "function"
    },
    {
      "inputs": [],
      "name": "defaultOperators",
      "outputs": [
        {
          "internalType": "address[]",
          "name": "",
          "type": "address[]"
        }
      ],
      "stateMutability": "view",
      "type": "function"
    },
    {
      "inputs": [],
      "name": "getGovernor",
      "outputs": [
        {
          "internalType": "address",
          "name": "",
          "type": "address"
        }
      ],
      "stateMutability": "view",
      "type": "function"
    },
    {
      "inputs": [],
      "name": "getReserve",
      "outputs": [
        {
          "internalType": "address",
          "name": "",
          "type": "address"
        }
      ],
      "stateMutability": "view",
      "type": "function"
    },
    {
      "inputs": [],
      "name": "getUpgrader",
      "outputs": [
        {
          "internalType": "address",
          "name": "",
          "type": "address"
        }
      ],
      "stateMutability": "view",
      "type": "function"
    },
    {
      "inputs": [
        {
          "internalType": "address",
          "name": "from",
          "type": "address"
        },
        {
          "internalType": "address",
          "name": "to",
          "type": "address"
        },
        {
          "internalType": "uint256",
          "name": "amount",
          "type": "uint256"
        },
        {
          "internalType": "bytes",
          "name": "userData",
          "type": "bytes"
        }
      ],
      "name": "governorSend",
      "outputs": [],
      "stateMutability": "nonpayable",
      "type": "function"
    },
    {
      "inputs": [],
      "name": "granularity",
      "outputs": [
        {
          "internalType": "uint256",
          "name": "",
          "type": "uint256"
        }
      ],
      "stateMutability": "view",
      "type": "function"
    },
    {
      "inputs": [
        {
          "internalType": "string",
          "name": "name_",
          "type": "string"
        },
        {
          "internalType": "string",
          "name": "symbol_",
          "type": "string"
        },
        {
          "internalType": "address[]",
          "name": "defaultOperators_",
          "type": "address[]"
        },
        {
          "internalType": "uint256",
          "name": "totalSupply_",
          "type": "uint256"
        },
        {
          "internalType": "address",
          "name": "reserve_",
          "type": "address"
        },
        {
          "internalType": "address",
          "name": "governor_",
          "type": "address"
        },
        {
          "internalType": "address",
          "name": "upgrader_",
          "type": "address"
        },
        {
          "internalType": "address",
          "name": "faucet_",
          "type": "address"
        },
        {
          "internalType": "uint256",
          "name": "faucetInitialBalance_",
          "type": "uint256"
        }
      ],
      "name": "initialize",
      "outputs": [],
      "stateMutability": "nonpayable",
      "type": "function"
    },
    {
      "inputs": [
        {
          "internalType": "address",
          "name": "account",
          "type": "address"
        }
      ],
      "name": "isBlocked",
      "outputs": [
        {
          "internalType": "bool",
          "name": "",
          "type": "bool"
        }
      ],
      "stateMutability": "view",
      "type": "function"
    },
    {
      "inputs": [
        {
          "internalType": "address",
          "name": "operator",
          "type": "address"
        },
        {
          "internalType": "address",
          "name": "tokenHolder",
          "type": "address"
        }
      ],
      "name": "isOperatorFor",
      "outputs": [
        {
          "internalType": "bool",
          "name": "",
          "type": "bool"
        }
      ],
      "stateMutability": "view",
      "type": "function"
    },
    {
      "inputs": [],
      "name": "name",
      "outputs": [
        {
          "internalType": "string",
          "name": "",
          "type": "string"
        }
      ],
      "stateMutability": "view",
      "type": "function"
    },
    {
      "inputs": [
        {
          "internalType": "address",
          "name": "account",
          "type": "address"
        },
        {
          "internalType": "uint256",
          "name": "amount",
          "type": "uint256"
        },
        {
          "internalType": "bytes",
          "name": "data",
          "type": "bytes"
        },
        {
          "internalType": "bytes",
          "name": "operatorData",
          "type": "bytes"
        }
      ],
      "name": "operatorBurn",
      "outputs": [],
      "stateMutability": "nonpayable",
      "type": "function"
    },
    {
      "inputs": [
        {
          "internalType": "address",
          "name": "sender",
          "type": "address"
        },
        {
          "internalType": "address",
          "name": "recipient",
          "type": "address"
        },
        {
          "internalType": "uint256",
          "name": "amount",
          "type": "uint256"
        },
        {
          "internalType": "bytes",
          "name": "data",
          "type": "bytes"
        },
        {
          "internalType": "bytes",
          "name": "operatorData",
          "type": "bytes"
        }
      ],
      "name": "operatorSend",
      "outputs": [],
      "stateMutability": "nonpayable",
      "type": "function"
    },
    {
      "inputs": [
        {
          "internalType": "address",
          "name": "operator",
          "type": "address"
        }
      ],
      "name": "revokeOperator",
      "outputs": [],
      "stateMutability": "nonpayable",
      "type": "function"
    },
    {
      "inputs": [
        {
          "internalType": "address",
          "name": "recipient",
          "type": "address"
        },
        {
          "internalType": "uint256",
          "name": "amount",
          "type": "uint256"
        },
        {
          "internalType": "bytes",
          "name": "data",
          "type": "bytes"
        }
      ],
      "name": "send",
      "outputs": [],
      "stateMutability": "nonpayable",
      "type": "function"
    },
    {
      "inputs": [],
      "name": "symbol",
      "outputs": [
        {
          "internalType": "string",
          "name": "",
          "type": "string"
        }
      ],
      "stateMutability": "view",
      "type": "function"
    },
    {
      "inputs": [],
      "name": "totalSupply",
      "outputs": [
        {
          "internalType": "uint256",
          "name": "",
          "type": "uint256"
        }
      ],
      "stateMutability": "view",
      "type": "function"
    },
    {
      "inputs": [
        {
          "internalType": "address",
          "name": "recipient",
          "type": "address"
        },
        {
          "internalType": "uint256",
          "name": "amount",
          "type": "uint256"
        }
      ],
      "name": "transfer",
      "outputs": [
        {
          "internalType": "bool",
          "name": "",
          "type": "bool"
        }
      ],
      "stateMutability": "nonpayable",
      "type": "function"
    },
    {
      "inputs": [
        {
          "internalType": "address",
          "name": "holder",
          "type": "address"
        },
        {
          "internalType": "address",
          "name": "recipient",
          "type": "address"
        },
        {
          "internalType": "uint256",
          "name": "amount",
          "type": "uint256"
        }
      ],
      "name": "transferFrom",
      "outputs": [
        {
          "internalType": "bool",
          "name": "",
          "type": "bool"
        }
      ],
      "stateMutability": "nonpayable",
      "type": "function"
    },
    {
      "inputs": [
        {
          "internalType": "address",
          "name": "account",
          "type": "address"
        }
      ],
      "name": "unblockAddress",
      "outputs": [],
      "stateMutability": "nonpayable",
      "type": "function"
    },
    {
      "inputs": [
        {
          "internalType": "address",
          "name": "newImplementation",
          "type": "address"
        }
      ],
      "name": "upgradeTo",
      "outputs": [],
      "stateMutability": "nonpayable",
      "type": "function"
    },
    {
      "inputs": [
        {
          "internalType": "address",
          "name": "newImplementation",
          "type": "address"
        },
        {
          "internalType": "bytes",
          "name": "data",
          "type": "bytes"
        }
      ],
      "name": "upgradeToAndCall",
      "outputs": [],
      "stateMutability": "payable",
      "type": "function"
    }
  ],
  "bytecode": "0x60a06040523060805234801561001457600080fd5b5060805161300561004560003960008181610b2a01528181610b6a01528181610bf30152610c3301526130056000f3fe6080604052600436106101b75760003560e01c806370a08231116100ec578063d95b63711161008a578063fad8b32a11610064578063fad8b32a146104fc578063fbac39511461051c578063fc673c4f14610555578063fe9d93031461057557600080fd5b8063d95b637114610478578063dd62ed3e14610498578063e4d7437b146104de57600080fd5b806395d89b41116100c657806395d89b41146104035780639bd9bbc614610418578063a9059cbb14610438578063ad2bb1b31461045857600080fd5b806370a082311461038d5780638960b23f146103c3578063959b8c3f146103e357600080fd5b8063313ce567116101595780634fc07d75116101335780634fc07d7514610309578063556f0dc71461033b57806359bf5d391461034f57806362ad1b831461036d57600080fd5b8063313ce567146102ba5780633659cfe6146102d65780634f1ef286146102f657600080fd5b806318160ddd1161019557806318160ddd14610239578063186d9d88146102585780631eaa5cc41461027a57806323b872dd1461029a57600080fd5b806306e48538146101bc57806306fdde03146101e7578063095ea7b314610209575b600080fd5b3480156101c857600080fd5b506101d1610595565b6040516101de9190612661565b60405180910390f35b3480156101f357600080fd5b506101fc6105f7565b6040516101de9190612706565b34801561021557600080fd5b5061022961022436600461273e565b610680565b60405190151581526020016101de565b34801561024557600080fd5b506098545b6040519081526020016101de565b34801561026457600080fd5b5061027861027336600461276a565b610698565b005b34801561028657600080fd5b506102786102953660046128c7565b61077a565b3480156102a657600080fd5b506102296102b53660046129a6565b61095d565b3480156102c657600080fd5b50604051601281526020016101de565b3480156102e257600080fd5b506102786102f136600461276a565b610b1f565b6102786103043660046129e7565b610be8565b34801561031557600080fd5b5060c9546001600160a01b03165b6040516001600160a01b0390911681526020016101de565b34801561034757600080fd5b50600161024a565b34801561035b57600080fd5b5060cc546001600160a01b0316610323565b34801561037957600080fd5b50610278610388366004612a37565b610ca2565b34801561039957600080fd5b5061024a6103a836600461276a565b6001600160a01b031660009081526097602052604090205490565b3480156103cf57600080fd5b506102786103de366004612aca565b610cde565b3480156103ef57600080fd5b506102786103fe36600461276a565b610d9e565b34801561040f57600080fd5b506101fc610ebc565b34801561042457600080fd5b50610278610433366004612b36565b610ecb565b34801561044457600080fd5b5061022961045336600461273e565b610eee565b34801561046457600080fd5b5061027861047336600461276a565b610fa1565b34801561048457600080fd5b50610229610493366004612b8f565b611075565b3480156104a457600080fd5b5061024a6104b3366004612b8f565b6001600160a01b039182166000908152609f6020908152604080832093909416825291909152205490565b3480156104ea57600080fd5b5060ca546001600160a01b0316610323565b34801561050857600080fd5b5061027861051736600461276a565b611116565b34801561052857600080fd5b5061022961053736600461276a565b6001600160a01b0316600090815260cb602052604090205460ff1690565b34801561056157600080fd5b50610278610570366004612bc8565b611232565b34801561058157600080fd5b50610278610590366004612c3c565b61126a565b6060609b8054806020026020016040519081016040528092919081815260200182805480156105ed57602002820191906000526020600020905b81546001600160a01b031681526001909101906020018083116105cf575b5050505050905090565b60606099805461060690612c6d565b80601f016020809104026020016040519081016040528092919081815260200182805461063290612c6d565b80156105ed5780601f10610654576101008083540402835291602001916105ed565b820191906000526020600020905b81548152906001019060200180831161066257509395945050505050565b60003361068e818585611285565b5060019392505050565b60c9546001600160a01b031633146106cb5760405162461bcd60e51b81526004016106c290612ca8565b60405180910390fd5b6001600160a01b038116600090815260cb602052604090205460ff1615156001146107315760405162461bcd60e51b81526020600482015260166024820152751059191c995cdcc81a5cc81b9bdd08189b1bd8dad95960521b60448201526064016106c2565b6001600160a01b038116600081815260cb6020526040808220805460ff19169055517f5c272fb29e21b46870af1850afe89126704c55a7781cc100da3f733e15446c7d9190a250565b61078789898987876113ac565b600086116107d75760405162461bcd60e51b815260206004820152601b60248201527f546f74616c20737570706c792063616e6e6f74206265207a65726f000000000060448201526064016106c2565b6001600160a01b03851661082d5760405162461bcd60e51b815260206004820152601e60248201527f5265736572766520616464726573732063616e6e6f74206265207a65726f000060448201526064016106c2565b6001600160a01b0382166108835760405162461bcd60e51b815260206004820152601d60248201527f46617563657420616464726573732063616e6e6f74206265207a65726f00000060448201526064016106c2565b600081116108e15760405162461bcd60e51b815260206004820152602560248201527f46617563657420696e697469616c2062616c616e63652063616e6e6f74206265604482015264207a65726f60d81b60648201526084016106c2565b60cc80546001600160a01b0319166001600160a01b0387161790556040805160208082018352600080835283519182019093528281526109269288928a929091611504565b61095284868484604051806020016040528060008152506040518060200160405280600081525061164d565b505050505050505050565b60006001600160a01b0383166109855760405162461bcd60e51b81526004016106c290612cf4565b6001600160a01b0384166109ea5760405162461bcd60e51b815260206004820152602660248201527f4552433737373a207472616e736665722066726f6d20746865207a65726f206160448201526564647265737360d01b60648201526084016106c2565b6000339050610a1b81868686604051806020016040528060008152506040518060200160405280600081525061172d565b610a4781868686604051806020016040528060008152506040518060200160405280600081525061164d565b6001600160a01b038086166000908152609f602090815260408083209385168352929052205483811015610acf5760405162461bcd60e51b815260206004820152602960248201527f4552433737373a207472616e7366657220616d6f756e74206578636565647320604482015268616c6c6f77616e636560b81b60648201526084016106c2565b610ae38683610ade8785612d4e565b611285565b610b118287878760405180602001604052806000815250604051806020016040528060008152506000611855565b6001925050505b9392505050565b306001600160a01b037f0000000000000000000000000000000000000000000000000000000000000000161415610b685760405162461bcd60e51b81526004016106c290612d65565b7f00000000000000000000000000000000000000000000000000000000000000006001600160a01b0316610b9a611a1a565b6001600160a01b031614610bc05760405162461bcd60e51b81526004016106c290612db1565b610bc981611a48565b60408051600080825260208201909252610be591839190611b13565b50565b306001600160a01b037f0000000000000000000000000000000000000000000000000000000000000000161415610c315760405162461bcd60e51b81526004016106c290612d65565b7f00000000000000000000000000000000000000000000000000000000000000006001600160a01b0316610c63611a1a565b6001600160a01b031614610c895760405162461bcd60e51b81526004016106c290612db1565b610c9282611a48565b610c9e82826001611b13565b5050565b610cac3386611075565b610cc85760405162461bcd60e51b81526004016106c290612dfd565b610cd785858585856001611c57565b5050505050565b60c9546001600160a01b03163314610d085760405162461bcd60e51b81526004016106c290612ca8565b60c954604080516020810190915260008152610d35916001600160a01b0316908690869086908690611d3a565b80604051610d439190612e49565b6040518091039020836001600160a01b0316856001600160a01b03167fa172ff9aaedd138c6c249bb5af8dcdc68c93e3e9c12178b6ff1fca239dbe3acb85604051610d9091815260200190565b60405180910390a450505050565b336001600160a01b0382161415610e035760405162461bcd60e51b8152602060048201526024808201527f4552433737373a20617574686f72697a696e672073656c66206173206f70657260448201526330ba37b960e11b60648201526084016106c2565b6001600160a01b0381166000908152609c602052604090205460ff1615610e5457336000908152609e602090815260408083206001600160a01b03851684529091529020805460ff19169055610e83565b336000908152609d602090815260408083206001600160a01b03851684529091529020805460ff191660011790555b60405133906001600160a01b038316907ff4caeb2d6ca8932a215a353d0703c326ec2d81fc68170f320eb2ab49e9df61f990600090a350565b6060609a805461060690612c6d565b610ee933848484604051806020016040528060008152506001611c57565b505050565b60006001600160a01b038316610f165760405162461bcd60e51b81526004016106c290612cf4565b6000339050610f4781828686604051806020016040528060008152506040518060200160405280600081525061172d565b610f7381828686604051806020016040528060008152506040518060200160405280600081525061164d565b61068e8182868660405180602001604052806000815250604051806020016040528060008152506000611855565b60c9546001600160a01b03163314610fcb5760405162461bcd60e51b81526004016106c290612ca8565b6001600160a01b038116600090815260cb602052604090205460ff16156110295760405162461bcd60e51b81526020600482015260126024820152711059191c995cdcc81a5cc8189b1bd8dad95960721b60448201526064016106c2565b6001600160a01b038116600081815260cb6020526040808220805460ff19166001179055517f75e91ce73c1d3352d8dd3610443539cd33dfe13b1de8f8caae54ec26dd0dc9cb9190a250565b6000816001600160a01b0316836001600160a01b031614806110e057506001600160a01b0383166000908152609c602052604090205460ff1680156110e057506001600160a01b038083166000908152609e602090815260408083209387168352929052205460ff16155b80610b1857506001600160a01b038083166000908152609d602090815260408083209387168352929052205460ff169392505050565b6001600160a01b0381163314156111795760405162461bcd60e51b815260206004820152602160248201527f4552433737373a207265766f6b696e672073656c66206173206f70657261746f6044820152603960f91b60648201526084016106c2565b6001600160a01b0381166000908152609c602052604090205460ff16156111cd57336000908152609e602090815260408083206001600160a01b03851684529091529020805460ff191660011790556111f9565b336000908152609d602090815260408083206001600160a01b03851684529091529020805460ff191690555b60405133906001600160a01b038316907f50546e66e5f44d728365dc3908c63bc5cfeeab470722c1677e3073a6ac294aa190600090a350565b61123c3385611075565b6112585760405162461bcd60e51b81526004016106c290612dfd565b61126484848484611ea0565b50505050565b610c9e33838360405180602001604052806000815250611ea0565b6001600160a01b0383166112e95760405162461bcd60e51b815260206004820152602560248201527f4552433737373a20617070726f76652066726f6d20746865207a65726f206164604482015264647265737360d81b60648201526084016106c2565b6001600160a01b03821661134b5760405162461bcd60e51b815260206004820152602360248201527f4552433737373a20617070726f766520746f20746865207a65726f206164647260448201526265737360e81b60648201526084016106c2565b6001600160a01b038381166000818152609f602090815260408083209487168084529482529182902085905590518481527f8c5be1e5ebec7d5bd14f71427d1e84f3dd0314c0f7b2291e5b200ac8c7c3b925910160405180910390a3505050565b600054610100900460ff16806113c5575060005460ff16155b6113e15760405162461bcd60e51b81526004016106c290612e65565b600054610100900460ff16158015611403576000805461ffff19166101011790555b61140e868686612049565b6001600160a01b0383166114645760405162461bcd60e51b815260206004820152601f60248201527f476f7665726e6f7220616464726573732063616e6e6f74206265207a65726f0060448201526064016106c2565b6001600160a01b0382166114ba5760405162461bcd60e51b815260206004820152601f60248201527f557067726164657220616464726573732063616e6e6f74206265207a65726f0060448201526064016106c2565b60c980546001600160a01b038086166001600160a01b03199283161790925560ca80549285169290911691909117905580156114fc576000805461ff00191690555b505050505050565b6001600160a01b03851661155a5760405162461bcd60e51b815260206004820181905260248201527f4552433737373a206d696e7420746f20746865207a65726f206164647265737360448201526064016106c2565b600033905084609860008282546115719190612eb3565b90915550506001600160a01b0386166000908152609760205260408120805487929061159e908490612eb3565b909155506115b490508160008888888888611855565b856001600160a01b0316816001600160a01b03167f2fe5be0146f74c5bce36c0b80911af6c7d86ff27e89d5cfa61fc681327954e5d8787876040516115fb93929190612ecb565b60405180910390a36040518581526001600160a01b038716906000907fddf252ad1be2c89b69c2b068fc378daa952ba7f163c4a11628f55a4df523b3ef906020015b60405180910390a3505050505050565b6001600160a01b038516600090815260cb602052604090205460ff16156116b65760405162461bcd60e51b815260206004820152601d60248201527f5468652073656e646572206164647265737320697320626c6f636b656400000060448201526064016106c2565b6001600160a01b038416600090815260cb602052604090205460ff161561171f5760405162461bcd60e51b815260206004820181905260248201527f54686520726563697069656e74206164647265737320697320626c6f636b656460448201526064016106c2565b6114fc868686868686611d3a565b60405163555ddc6560e11b81526001600160a01b03861660048201527f29ddb589b1fb5fc7cf394961c1adf5f8c6454761adf795e67fe149f658abe8956024820152600090731820a4b7618bde71dce8cdc73aab6c95905fad249063aabbb8ca90604401602060405180830381865afa1580156117ae573d6000803e3d6000fd5b505050506040513d601f19601f820116820180604052508101906117d29190612f00565b90506001600160a01b0381161561184c57604051633ad5cbc160e11b81526001600160a01b038216906375ab978290611819908a908a908a908a908a908a90600401612f1d565b600060405180830381600087803b15801561183357600080fd5b505af1158015611847573d6000803e3d6000fd5b505050505b50505050505050565b60405163555ddc6560e11b81526001600160a01b03861660048201527fb281fc8c12954d22544db45de3159a39272895b169a852b314f9cc762e44c53b6024820152600090731820a4b7618bde71dce8cdc73aab6c95905fad249063aabbb8ca90604401602060405180830381865afa1580156118d6573d6000803e3d6000fd5b505050506040513d601f19601f820116820180604052508101906118fa9190612f00565b90506001600160a01b03811615611976576040516223de2960e01b81526001600160a01b038216906223de299061193f908b908b908b908b908b908b90600401612f1d565b600060405180830381600087803b15801561195957600080fd5b505af115801561196d573d6000803e3d6000fd5b50505050611a10565b8115611a10576001600160a01b0386163b15611a105760405162461bcd60e51b815260206004820152604d60248201527f4552433737373a20746f6b656e20726563697069656e7420636f6e747261637460448201527f20686173206e6f20696d706c656d656e74657220666f7220455243373737546f60648201526c1ad95b9cd49958da5c1a595b9d609a1b608482015260a4016106c2565b5050505050505050565b7f360894a13ba1a3210667c828492db98dca3e2076cc3735a920a3ca505d382bbc546001600160a01b031690565b60ca546001600160a01b03163314611aa25760405162461bcd60e51b815260206004820152601860248201527f596f7520617265206e6f7420746865207570677261646572000000000000000060448201526064016106c2565b6001600160a01b038116610be55760405162461bcd60e51b815260206004820152603260248201527f4e657720696d706c656d656e746174696f6e20636f6e747261637420616464726044820152716573732063616e6e6f74206265207a65726f60701b60648201526084016106c2565b6000611b1d611a1a565b9050611b28846120ca565b600083511180611b355750815b15611b4657611b44848461216f565b505b7f4910fdfa16fed3260ed0e7147f7cc6da11a60208b5b9406d12a635614ffd9143805460ff16610cd757805460ff191660011781556040516001600160a01b0383166024820152611bc590869060440160408051601f198184030181529190526020810180516001600160e01b0316631b2ce7f360e11b17905261216f565b50805460ff19168155611bd6611a1a565b6001600160a01b0316826001600160a01b031614611c4e5760405162461bcd60e51b815260206004820152602f60248201527f45524331393637557067726164653a207570677261646520627265616b73206660448201526e75727468657220757067726164657360881b60648201526084016106c2565b610cd78561225a565b6001600160a01b038616611cb85760405162461bcd60e51b815260206004820152602260248201527f4552433737373a2073656e642066726f6d20746865207a65726f206164647265604482015261737360f01b60648201526084016106c2565b6001600160a01b038516611d0e5760405162461bcd60e51b815260206004820181905260248201527f4552433737373a2073656e6420746f20746865207a65726f206164647265737360448201526064016106c2565b33611d1d81888888888861172d565b611d2b81888888888861164d565b61184c81888888888888611855565b6001600160a01b03851660009081526097602052604090205483811015611db35760405162461bcd60e51b815260206004820152602760248201527f4552433737373a207472616e7366657220616d6f756e7420657863656564732060448201526662616c616e636560c81b60648201526084016106c2565b6001600160a01b03808716600090815260976020526040808220878503905591871681529081208054869290611dea908490612eb3565b92505081905550846001600160a01b0316866001600160a01b0316886001600160a01b03167f06b541ddaa720db2b10a4d0cdac39b8d360425fc073085fac19bc82614677987878787604051611e4293929190612ecb565b60405180910390a4846001600160a01b0316866001600160a01b03167fddf252ad1be2c89b69c2b068fc378daa952ba7f163c4a11628f55a4df523b3ef86604051611e8f91815260200190565b60405180910390a350505050505050565b6001600160a01b038416611f015760405162461bcd60e51b815260206004820152602260248201527f4552433737373a206275726e2066726f6d20746865207a65726f206164647265604482015261737360f01b60648201526084016106c2565b33611f118186600087878761172d565b6001600160a01b03851660009081526097602052604090205484811015611f865760405162461bcd60e51b815260206004820152602360248201527f4552433737373a206275726e20616d6f756e7420657863656564732062616c616044820152626e636560e81b60648201526084016106c2565b6001600160a01b0386166000908152609760205260408120868303905560988054879290611fb5908490612d4e565b92505081905550856001600160a01b0316826001600160a01b03167fa78a9be3a7b862d26933ad85fb11d80ef66b8f972d7cbba06621d583943a409887878760405161200393929190612ecb565b60405180910390a36040518581526000906001600160a01b038816907fddf252ad1be2c89b69c2b068fc378daa952ba7f163c4a11628f55a4df523b3ef9060200161163d565b600054610100900460ff1680612062575060005460ff16155b61207e5760405162461bcd60e51b81526004016106c290612e65565b600054610100900460ff161580156120a0576000805461ffff19166101011790555b6120a861229a565b6120b3848484612305565b8015611264576000805461ff001916905550505050565b803b61212e5760405162461bcd60e51b815260206004820152602d60248201527f455243313936373a206e657720696d706c656d656e746174696f6e206973206e60448201526c1bdd08184818dbdb9d1c9858dd609a1b60648201526084016106c2565b7f360894a13ba1a3210667c828492db98dca3e2076cc3735a920a3ca505d382bbc80546001600160a01b0319166001600160a01b0392909216919091179055565b6060823b6121ce5760405162461bcd60e51b815260206004820152602660248201527f416464726573733a2064656c65676174652063616c6c20746f206e6f6e2d636f6044820152651b9d1c9858dd60d21b60648201526084016106c2565b600080846001600160a01b0316846040516121e99190612e49565b600060405180830381855af49150503d8060008114612224576040519150601f19603f3d011682016040523d82523d6000602084013e612229565b606091505b50915091506122518282604051806060016040528060278152602001612fa96027913961253a565b95945050505050565b612263816120ca565b6040516001600160a01b038216907fbc7cd75a20ee27fd9adebab32041f755214dbc6bffa90cc0225b39da2e5c2d3b90600090a250565b600054610100900460ff16806122b3575060005460ff16155b6122cf5760405162461bcd60e51b81526004016106c290612e65565b600054610100900460ff161580156122f1576000805461ffff19166101011790555b8015610be5576000805461ff001916905550565b600054610100900460ff168061231e575060005460ff16155b61233a5760405162461bcd60e51b81526004016106c290612e65565b600054610100900460ff1615801561235c576000805461ffff19166101011790555b835161236f906099906020870190612573565b50825161238390609a906020860190612573565b50815161239790609b9060208501906125f7565b5060005b8251811015612400576001609c60008584815181106123bc576123bc612f77565b6020908102919091018101516001600160a01b03168252810191909152604001600020805460ff1916911515919091179055806123f881612f8d565b91505061239b565b506040516329965a1d60e01b815230600482018190527fac7fbab5f54a3ca8194167523c6753bfeb96a445279294b6125b68cce217705460248301526044820152731820a4b7618bde71dce8cdc73aab6c95905fad24906329965a1d90606401600060405180830381600087803b15801561247a57600080fd5b505af115801561248e573d6000803e3d6000fd5b50506040516329965a1d60e01b815230600482018190527faea199e31a596269b42cdafd93407f14436db6e4cad65417994c2eb37381e05a60248301526044820152731820a4b7618bde71dce8cdc73aab6c95905fad2492506329965a1d9150606401600060405180830381600087803b15801561250b57600080fd5b505af115801561251f573d6000803e3d6000fd5b505050508015611264576000805461ff001916905550505050565b60608315612549575081610b18565b8251156125595782518084602001fd5b8160405162461bcd60e51b81526004016106c29190612706565b82805461257f90612c6d565b90600052602060002090601f0160209004810192826125a157600085556125e7565b82601f106125ba57805160ff19168380011785556125e7565b828001600101855582156125e7579182015b828111156125e75782518255916020019190600101906125cc565b506125f392915061264c565b5090565b8280548282559060005260206000209081019282156125e7579160200282015b828111156125e757825182546001600160a01b0319166001600160a01b03909116178255602090920191600190910190612617565b5b808211156125f3576000815560010161264d565b6020808252825182820181905260009190848201906040850190845b818110156126a25783516001600160a01b03168352928401929184019160010161267d565b50909695505050505050565b60005b838110156126c95781810151838201526020016126b1565b838111156112645750506000910152565b600081518084526126f28160208601602086016126ae565b601f01601f19169290920160200192915050565b602081526000610b1860208301846126da565b6001600160a01b0381168114610be557600080fd5b803561273981612719565b919050565b6000806040838503121561275157600080fd5b823561275c81612719565b946020939093013593505050565b60006020828403121561277c57600080fd5b8135610b1881612719565b634e487b7160e01b600052604160045260246000fd5b604051601f8201601f1916810167ffffffffffffffff811182821017156127c6576127c6612787565b604052919050565b600082601f8301126127df57600080fd5b813567ffffffffffffffff8111156127f9576127f9612787565b61280c601f8201601f191660200161279d565b81815284602083860101111561282157600080fd5b816020850160208301376000918101602001919091529392505050565b600082601f83011261284f57600080fd5b8135602067ffffffffffffffff82111561286b5761286b612787565b8160051b61287a82820161279d565b928352848101820192828101908785111561289457600080fd5b83870192505b848310156128bc5782356128ad81612719565b8252918301919083019061289a565b979650505050505050565b60008060008060008060008060006101208a8c0312156128e657600080fd5b893567ffffffffffffffff808211156128fe57600080fd5b61290a8d838e016127ce565b9a5060208c013591508082111561292057600080fd5b61292c8d838e016127ce565b995060408c013591508082111561294257600080fd5b5061294f8c828d0161283e565b97505060608a0135955061296560808b0161272e565b945061297360a08b0161272e565b935061298160c08b0161272e565b925061298f60e08b0161272e565b91506101008a013590509295985092959850929598565b6000806000606084860312156129bb57600080fd5b83356129c681612719565b925060208401356129d681612719565b929592945050506040919091013590565b600080604083850312156129fa57600080fd5b8235612a0581612719565b9150602083013567ffffffffffffffff811115612a2157600080fd5b612a2d858286016127ce565b9150509250929050565b600080600080600060a08688031215612a4f57600080fd5b8535612a5a81612719565b94506020860135612a6a81612719565b935060408601359250606086013567ffffffffffffffff80821115612a8e57600080fd5b612a9a89838a016127ce565b93506080880135915080821115612ab057600080fd5b50612abd888289016127ce565b9150509295509295909350565b60008060008060808587031215612ae057600080fd5b8435612aeb81612719565b93506020850135612afb81612719565b925060408501359150606085013567ffffffffffffffff811115612b1e57600080fd5b612b2a878288016127ce565b91505092959194509250565b600080600060608486031215612b4b57600080fd5b8335612b5681612719565b925060208401359150604084013567ffffffffffffffff811115612b7957600080fd5b612b85868287016127ce565b9150509250925092565b60008060408385031215612ba257600080fd5b8235612bad81612719565b91506020830135612bbd81612719565b809150509250929050565b60008060008060808587031215612bde57600080fd5b8435612be981612719565b935060208501359250604085013567ffffffffffffffff80821115612c0d57600080fd5b612c19888389016127ce565b93506060870135915080821115612c2f57600080fd5b50612b2a878288016127ce565b60008060408385031215612c4f57600080fd5b82359150602083013567ffffffffffffffff811115612a2157600080fd5b600181811c90821680612c8157607f821691505b60208210811415612ca257634e487b7160e01b600052602260045260246000fd5b50919050565b6020808252602c908201527f4f6e6c792074686520676f7665726e6f722063616e20706572666f726d20746860408201526b34b99037b832b930ba34b7b760a11b606082015260800190565b60208082526024908201527f4552433737373a207472616e7366657220746f20746865207a65726f206164646040820152637265737360e01b606082015260800190565b634e487b7160e01b600052601160045260246000fd5b600082821015612d6057612d60612d38565b500390565b6020808252602c908201527f46756e6374696f6e206d7573742062652063616c6c6564207468726f7567682060408201526b19195b1959d85d1958d85b1b60a21b606082015260800190565b6020808252602c908201527f46756e6374696f6e206d7573742062652063616c6c6564207468726f7567682060408201526b6163746976652070726f787960a01b606082015260800190565b6020808252602c908201527f4552433737373a2063616c6c6572206973206e6f7420616e206f70657261746f60408201526b39103337b9103437b63232b960a11b606082015260800190565b60008251612e5b8184602087016126ae565b9190910192915050565b6020808252602e908201527f496e697469616c697a61626c653a20636f6e747261637420697320616c72656160408201526d191e481a5b9a5d1a585b1a5e995960921b606082015260800190565b60008219821115612ec657612ec6612d38565b500190565b838152606060208201526000612ee460608301856126da565b8281036040840152612ef681856126da565b9695505050505050565b600060208284031215612f1257600080fd5b8151610b1881612719565b6001600160a01b0387811682528681166020830152851660408201526060810184905260c060808201819052600090612f58908301856126da565b82810360a0840152612f6a81856126da565b9998505050505050505050565b634e487b7160e01b600052603260045260246000fd5b6000600019821415612fa157612fa1612d38565b506001019056fe416464726573733a206c6f772d6c6576656c2064656c65676174652063616c6c206661696c6564a264697066735822122013ee1736645ffe40f14feccfbafc3da8c64e8c2911678a234447db281eeb997164736f6c634300080b0033",
  "linkReferences": {},
  "deployedLinkReferences": {}
}